:020000040800F2
:100000000005002001010008212900081926000828
:100010008927000871110008312A0008000000003B
:100020000000000000000000000000002929000876
:100030007511000800000000252900082D2900087E
:100040001B0100081B0100081B0100081B01000820
:100050001B0100081B0100081B0100081B01000810
:100060001B0100081B0100081B0100081B01000800
:100070001B0100081B0100081B0100081B010008F0
:100080001B0100081B0100081B0100081B010008E0
:100090001B0100081B0100081B0100081B010008D0
:1000A0001B0100081B0100081B0100081B010008C0
:1000B0001B010008392900081B0100081B0100086A
:1000C0001B0100081B0100081B0100081B010008A0
:1000D0001B010008212A00081B0100081B01000861
:1000E0001B0100081B0100081B010008DFF80CD0F1
:1000F00000F096FB00480047552A00080005002044
:100100000648804706480047FEE7FEE7FEE7FEE7B1
:10011000FEE7FEE7FEE7FEE7FEE7FEE7352900081B
:10012000ED000008D2B201E000F8012B491EFBD21D
:1001300070470022F6E710B513460A4604461946F2
:10014000FFF7F0FF204610BDF0B480EA0102D40FA3
:100150004200B2EB410F02D20246084611464A0065
:1001600042D0C30DDDB2C1F3C752AD1A202D35DA2E
:10017000C1F3160141F4000204B15242C5F1200658
:1001800002FA06F12A411044B3EBD05F23D0C4B188
:10019000012DA0EBC35009DCF0BC4FF0004202EA95
:1001A000C352DBB200F5000000F02CB9400000F1B2
:1001B000807000EBC350A0F1807040EAD17049001C
:1001C00009E0490841EAC071A0EBC35000F5000006
:1001D000400800EBC350F0BC00F00BB961420122B3
:1001E00002EB4101001BF6E7F0BC704781F00041D3
:1001F000AAE780F00040A7E780EA010210B502F00C
:100200000043400022D04A001FD0010E01EB1261D2
:10021000C0F35600C2F3560240F4000042F400025C
:10022000A0FB022000047F39140400D0401C50EAD7
:10023000124001D44000491EC2B20C0604EBD0109B
:10024000401C4008802A02D003E0002010BD20F0AE
:100250000100002900DA0020184310BD30B480EA04
:10026000010202F0004530F0004221F0004013D0BE
:1002700090B1C30DD40DC2F31601C0F31600E41AF9
:1002800041F4000140F400027D34914201D3641C2A
:1002900000E04900002C02DA30BC002070474FF427
:1002A00000000023914201D3891A034340084FEA1A
:1002B0004101F7D151B1914202D14FF0004105E027
:1002C00002D24FF0010101E06FF0010103EBC450D5
:1002D000284430BC00F08DB8002801DBC0F100409C
:1002E000002901DBC1F10041814201D801207047A2
:1002F00000207047002801DBC0F10040002901DB2D
:10030000C1F10041814201D30120704700207047B4
:10031000002801DBC0F10040002901DBC1F10041F0
:10032000814201D90120704700207047C10F80EA47
:10033000E0700844CA079623002100F063B800F07B
:10034000004230F000400AD0C10D01F56071C0F3E9
:10035000160042EA0151C2084007114370470020CD
:100360000146704730B50B4601460020202201248B
:1003700009E021FA02F59D4205D303FA02F5491B73
:1003800004FA02F52844151EA2F10102F1DC30BD89
:100390002DE9F05F0546002092469B4688460646BA
:1003A000814640241BE0284641464746224600F04D
:1003B00058FA53465A46C01A914110D3114618466E
:1003C000224600F03FFA2D1A67EB01084F462246FD
:1003D0000120002100F036FA17EB00094E41201EE3
:1003E000A4F10104DFDC484631462A464346BDE815
:1003F000F09F0029A8BF7047401C490008BF20F0AB
:100400000100704710B4B0FA80FC00FA0CF050EA1A
:10041000010404BF10BC704749B1CCF1200421FA9B
:1004200004F411FA0CF118BF012121430843A3EB96
:100430000C01CB1D4FEA00614FEA102042BF0020A3
:1004400010BC704700EBC35010440029A4BF10BC7F
:100450007047401C490008BF20F0010010BC7047E5
:10046000420005D0C0F3C7525242914201DC002045
:10047000704700EBC15070472DE9FE4F804681EA7E
:100480000300C00F0C46009021F0004123F000450E
:10049000B8EB0200A94105D24046214690461C46D1
:1004A0000B46024623F00040104347D0270DC7F308
:1004B0000A00C3F30A510290401A019040286BDAF7
:1004C000C3F3130040F4801B0098924620B1002330
:1004D000D2EB030A63EB0B0B01985946C0F14002C3
:1004E000504600F0AFF906460D4650465946019A6F
:1004F00000F0C7F910EB08006141002487EA1152AF
:1005000084EAE7731A4340D0009A62B3019A012A41
:100510004FEA075215DC001B61EB02014FF000426D
:1005200002EA0752CDE90042001C41F58011324633
:100530002B4600F0F6F903B0BDE8F08F40462146A7
:10054000F9E7001B61EB0201001C41F58013001864
:100550005B412018A2F5001747EB030140EAD57074
:10056000B6196D4111E06D084FEA360645EAC075CF
:100570004FEA0752001B61EB0201001C41F580119C
:1005800049084FEA30000019514132462B4603B06A
:10059000BDE8F04F00F0B6B90098012240000023FA
:1005A000D0EB020263EBE073009821464FEAE0745F
:1005B000B8EB000061EB0401E9E783F000435BE77F
:1005C00081F0004158E72DE9FE4F81EA030404F071
:1005D000004421F0004100944FF0000B23F0004351
:1005E00050EA01045ED052EA03045BD0C3F30A541C
:1005F000C1F30A552C44A4F2F3340194A0FB025435
:10060000C1F3130141F48011C3F3130343F48013C6
:1006100001FB024400FB034E840A970A44EA81541A
:1006200047EA8357A4FB076802958D0A05FB0785F7
:100630004FEA932C04FB0C542705029D4FEA065801
:1006400047EA1637B5EB08056EEB070C870E920EDE
:1006500047EA811742EA8312A7FB0201B6EB0B01BE
:1006600064EB00042B0D43EA0C335E1844EB1C5082
:10067000DA465146E7FB0201C5F313044FEA0B3398
:1006800043EA14534FEA0432019C43EA0603A4F1FF
:100690000C040294009CCDE900B400F042F903B0D0
:1006A000BDE8F08F00200146F9E72DE9F04D81EA21
:1006B000030404F0004B21F0004514464FF0000AFB
:1006C00023F0004150EA050220D054EA01021DD077
:1006D000C5F30A570246C5F31303C1F31300C1F370
:1006E0000A5640F4801543F48013A7EB0608101B4C
:1006F000D64608F2FD3873EB050002D308F1010875
:1007000001E092185B41B8F1000F03DA00200146C6
:10071000BDE8F08D00204FF48011064684460EE0BF
:10072000171B73EB050705D3121B63EB0503064389
:100730004CEA010C49084FEA300092185B4150EA3C
:100740000107EDD152EA030012D082EA040083EAE5
:100750000501084305D0101BAB4106D2012200233E
:1007600006E000224FF0004302E06FF00102531058
:100770001AEB06004CEB085110EB0A0041EB0B01A1
:10078000BDE8F04D00F0BEB8C1F30A52C1F3130149
:1007900040F2FF3341F480119A4202DA0020014610
:1007A000704740F233439A42A2F2334202DC524293
:1007B00000F057B800F046B830B5041E71F10004DF
:1007C00004DB4FF00044404264EB0101141E73F15E
:1007D000000405DB1C464FF00043524263EB040368
:1007E000994208BF904230BD002801DBC0F10040B3
:1007F000002901DBC1F10041814202D24FF00040EB
:1008000004E04FF0005001D14FF0C040EFF3008101
:1008100021F07F4141EA000181F300887047000028
:10082000064C074D06E0E06840F0010394E807003D
:1008300098471034AC42F6D3FFF75CFC1859000817
:1008400038590008202A04DB203A00FA02F100207F
:1008500070479140C2F1200320FA03F319439040FE
:100860007047202A04DB203A21FA02F00021704769
:1008700021FA02F3D040C2F1200291400843194608
:100880007047202A06DBCB17203A41FA02F043EAF0
:10089000E07306E041FA02F3D040C2F12002914039
:1008A000084319467047F0B4002802DCF0BC002071
:1008B0007047C0F3C751C0F3160040F40000CA07E8
:1008C00001D14000491E3F2202EB61050022114682
:1008D0004FF4000626FA01F31344D418844201D8D9
:1008E000001B1A464000491C1729F3DD51008142C4
:1008F00002D24FF0FF3100E0002102EBC550F0BC06
:10090000FFF777BD10B5141E73F1000408DA401C20
:1009100041F1000192185B411A4301D120F001001E
:1009200010BD2DE9F04D92469B4611B1B1FA81F20E
:1009300002E0B0FA80F220329046FFF783FF0446CF
:100940000F4640EA0A0041EA0B0153465A46084363
:1009500013D0114653EA010019D0C8F140025046A5
:10096000FFF77FFF05460E46504659464246FFF7C1
:1009700069FF084305D0012004E020463946BDE860
:10098000F08D0020054346EAE0762C4337430A9871
:100990006305E40AA0EB08000022FD0A44EA47547C
:1009A0000A3002D500200146E9E701051019694126
:1009B000DDE9084500196941BDE8F04DA2E70000F6
:1009C0002DE9F04F8DB004460DF12D020C200721CA
:1009D00001F0ECFEBDF82E000C992080C4F8021046
:1009E0000DF126021220072101F0E0FEBDF927607B
:1009F000BDF92950BDF92BB0B4F90000E68025817E
:100A0000A4F80AB0B4F902700694B4F90440FFF7F0
:100A10008DFC40F23001C2F20001D1F800800146A5
:100A20004046FFF7E9FB81463846FFF77FFC014669
:100A30004046FFF7E1FB82462046FFF777FC014680
:100A40004046FFF7D9FB80463046FFF76FFC40F287
:100A50003401C2F200010C6801462046FFF7CCFBCE
:100A600008902846FFF762FC01462046FFF7C4FBCA
:100A700006465846FFF75AFC01462046FFF7BCFBE6
:100A8000834650465146FFF7B7FB04464846494661
:100A9000FFF7B2FB2146FFF757FB044640464146AD
:100AA000FFF7AAFB2146FFF74FFB4DF20A71C3F691
:100AB00023410546FFF710FC002840F03A8145F637
:100AC000DF10C5F63770A0EB650428464FF03F41B4
:100AD000FFF792FB2146FFF78FFB2146FFF78CFBC8
:100AE0004FF07F51FFF730FB2146FFF785FB0446AF
:100AF00048462146FFF780FB039050462146FFF70A
:100B00007BFB029040462146FFF776FBDDF818900C
:100B10000796D9E90868CDF814B0D9E90AB400906D
:100B200058463146FFF768FB054640462146FFF729
:100B300063FB2946FFF75AFB0146FFF705FB0190CF
:100B400020465946FFF758FB054630464146FFF719
:100B500053FB2946FFF7F8FA0146FFF7F5FA8246FC
:100B600040464146FFF748FB074630463146FFF70F
:100B700043FB3946FFF73AFB064658465946FFF70E
:100B80003BFB01463046FFF731FB06462046214637
:100B9000FFF732FB3146FFF7D7FA009F0446504675
:100BA0003946FFF729FBDDF808B0064658462146CE
:100BB000FFF722FB3146FFF719FB039D0646049021
:100BC00020462946FFF718FB04463846019F394660
:100BD000FFF712FB2146FFF709FB804638465946CE
:100BE000FFF70AFB044628465146FFF705FB21465E
:100BF000FFF7FCFA40F21C0A4DF20A74C2F2000A36
:100C0000C3F6A334DAF80050834630462146FFF796
:100C1000F3FA2946FFF798FA40F22001C2F20001E8
:100C20000D68064640462146FFF7E6FA2946FFF7DB
:100C30008BFA40F22401C2F200010F6805465846C3
:100C40002146FFF7D9FA3946FFF77EFA04463046C7
:100C50004FF07C51FFF75CFB002818BF4FF07C562B
:100C600030464FF03F4102F005FE0646CAF800004C
:100C700028464FF07C51FFF74BFB002818BF4FF080
:100C80007C5528464FF03F4102F0F4FD054640F206
:100C90002000C2F20000056020464FF07C51FFF7B3
:100CA00037FB002818BF4FF07C5420464FF03F41DF
:100CB00002F0E0FD044640F224004DF20A77C2F251
:100CC0000000C3F62347046030463946FFF794FA24
:100CD0000899FFF739FA064628463946FFF78CFA95
:100CE0000799FFF731FA054620463946FFF784FA9F
:100CF0000599FFF729FA49F69A170446C3F699773A
:100D000004983946FFF778FA3146FFF71DFA089044
:100D100040463946FFF770FA2946FFF715FA0646AE
:100D200058463946FFF768FA2146FFF70DFA804624
:100D300002E0DDF81890D846D9E90870D9E90A5AD6
:100D4000029080F000443046294607960495FFF74C
:100D500053FADDF820B0064620465946FFF74CFA14
:100D60003146FFF743FA044650464146FFF744FA3E
:100D700001462046FFF73AFA4FF07C51FFF73CFA64
:100D8000069040462946FFF737FA0446384659464A
:100D9000FFF732FA2146FFF7D7F9079D0446504680
:100DA0002946CDF814A0FFF727FA01462046FFF7A1
:100DB0001DFA4FF07C51FFF71FFA029E0390404648
:100DC0003146FFF719FA044638462946FFF714FA68
:100DD0002146FFF70BFA044650465946FFF70CFA36
:100DE0002146FFF7B1F94FF07C51FFF705FA01906A
:100DF00028463146B246FFF7FFF9044638464146D9
:100E0000FFF7FAF92146FFF79FF9049E04463046A2
:100E10005946FFF7F1F901462046FFF7E7F94FF091
:100E20007C51FFF7E9F94DF20A748046C3F6A3340A
:100E300006982146FFF7E0F901463846FFF784F9A6
:100E4000054603982146FFF7D7F901465046FFF7BC
:100E50007BF9824601982146FFF7CEF901463046DC
:100E6000FFF772F9064640462146FFF7C5F90146ED
:100E70000598FFF769F9804650465146FFF7BCF9DF
:100E8000074628462946FFF7B7F93946FFF75CF9C8
:100E9000074630463146FFF7AFF93946FFF754F9B8
:100EA000074640464146FFF7A7F93946FFF74CF998
:100EB00045F6DF11C5F63771A1EB60074FF03F41F2
:100EC000FFF79AF93946FFF797F93946FFF794F992
:100ED0004FF07F51FFF738F93946FFF78DF9044697
:100EE00028462146FFF788F90746C9F820005046F2
:100EF0002146FFF781F90546C9F82400304621460E
:100F0000FFF77AF90646C9F8280040462146FFF760
:100F100073F90146C9F82C003046FFF76DF9044615
:100F200038462946FFF768F92146FFF70DF90146D3
:100F3000FFF70AF9044630463146FFF75DF90646E9
:100F400028462946FFF758F93146FFF7FDF80146D4
:100F5000FFF7FAF801464FF07E50FFF747F90146D8
:100F6000204602F035FB42F6E168C4F265284146AE
:100F7000FFF742F9D9E90842D9E90A61C9F8140032
:100F80001046FFF739F9074620463146FFF734F996
:100F90003946FFF72BF90146FFF7D6F802F086FA3B
:100FA0004146FFF729F9D9E90861D9E90A47C9F8A3
:100FB000180008462146FFF71FF905463046394616
:100FC000FFF71AF92946FFF7BFF80146FFF7BCF80B
:100FD000064638463946FFF70FF9054620462146B2
:100FE000FFF70AF92946FFF7AFF80146FFF7ACF81B
:100FF00001464FF07E50FFF7F9F80146304602F007
:10100000E7FA4146FFF7F8F840F21801C2F2000192
:101010000A7840F22C060446C2F2000692B140F271
:101020002807C2F2000739682046FFF7DFF80021E1
:10103000C4F234310546FFF74FF960B90021CCF214
:10104000B43112E040F22800C2F200000460012036
:101050003460087013E00021CCF234312846FFF7E9
:1010600049F930B90021C4F2B4312846FFF76CF8D1
:10107000054631682846FFF767F830603C60306805
:10108000C9F810000DB0BDE8F08F000010B582B0B7
:101090004FF07E510024C0E90814C0E90A4401F071
:1010A00075FB40F23000C2F200004FF06851016061
:1010B00040F2340047F67D51C2F20000C3F68B21A6
:1010C0000160642000F0D4F87C20002101F0BAFB1C
:1010D000022000F0CDF85920002101F0B3FB43F6C7
:1010E0000612C0F600025E204FF4005101F0C4FB6E
:1010F0005920012101F0A6FB282000F0B9F801AA2F
:101100002120022101F052FB9DF8050058B37D20FB
:101110000E2101F097FB7020012101F093FB6B2061
:10112000002101F08FFB4320002101F08BFB4220C6
:10113000A92101F087FB4120032101F083FB40201E
:10114000A92101F07FFB0A2000F092F80DF10602C0
:101150000020022101F02AFB9DF80700FF2808BFAC
:101160004FF0FF3400E0FF2460B202B010BD000079
:10117000FEE7000070470000EFF3108072B600BF7A
:10118000FEE70000014690F82100022813D108680C
:10119000D1E90FC3026822F00E020260026822F059
:1011A00001020260012000FA03F2CCF8042081F869
:1011B0002100002002E0042088630120002281F841
:1011C0002020704780B590F82110022923D10268B1
:1011D000116821F00E0111602F211368C4F2020181
:1011E0008A4240F20401C4F2020123F001031360B9
:1011F00015DD3023C4F202039A421CD04423C4F20A
:1012000002039A421AD05823C4F202039A421AD116
:101210004FF480331FE004218163012080BD082347
:10122000C4F202039A420CD01C23C4F202039A4275
:1012300009D110230FE04FF480730CE04FF480537A
:1012400009E0012307E001F1680C4FF0807362456B
:1012500008BF4FF480130B60012180F82110426B0E
:10126000002180F820100AB190470021084680BD77
:10127000B0B5044600F01AF9054640F20C00C2F27F
:1012800000000078611C18BF044400BF00F00EF994
:10129000401BA042FAD3B0BD2DE9F04F82B041F21D
:1012A0000042C4F201020E680423904208BF0323E7
:1012B000002E009300F0EA8040F2004C4FF6FF7ED3
:1012C0000022C4F2010C0124C1F2100E4FF0000AFA
:1012D0004FF0000941E0012502F00C040F27A74060
:1012E0002BEA070705FA04F43C4343F826404E680E
:1012F00040F20C45F302DCF8083054BF23EA08033F
:1013000043EA0803C4F20105CCF808302B68B402A4
:1013100054BF23EA080343EA08032B60B403DCF854
:10132000043054BF23EA080343EA0803F403CCF86B
:101330000430DCF800304FF0010454BF23EA080306
:1013400043EA0803CCF800300E680AF1010A36FAC5
:101350000AF302F1040200F0998004FA0AFB16EA8B
:101360000B08F1D04B68734510DC122B50D8DFE826
:1013700003F0330A41454F4F4F4F4F4F4F4F4F4FA1
:101380004F4F4F484C00D1F80C9041E04FF6FF759D
:10139000C1F22105AB420FDC0025C1F21105AB42C1
:1013A0001AD00025C1F21205AB4215D00025C1F2BA
:1013B0002105AB4210D02BE00025C1F22205AB4243
:1013C0000AD00025C1F23105AB4205D00025C1F29B
:1013D0003205AB421CD100BF8B6843B1012B14BF57
:1013E000C0F814B0C0F810B04FF0080910E04FF08A
:1013F00004090DE0CB6803F1080909E04FF000098A
:1014000006E0CB6803F1040902E0CB6803F10C09A4
:1014100013460546B8F5807F24BF203B04352E686F
:101420000F279F40BE4309FA03F333432B60CB7968
:10143000DB067FF589AF41F21804C4F20204236889
:101440004FEA9A0643F001032360236840F6000444
:1014500003F001030193019BACF57E7353F826B0B2
:10146000C4F20104A0420FD040F60044C4F20104CB
:10147000A0423FF430AF41F20004C4F20104009DE9
:10148000A04208BF022527E7002525E702B0BDE8F6
:10149000F08F00008068084018BF012070470000EE
:1014A000002A08BF090401617047000040F2F800FB
:1014B000C2F200000068704740F20C0040F2F801F0
:1014C000C2F20000C2F2000100780A68104408600D
:1014D0007047000080B542F20000C4F202000168CB
:1014E00041F010010160032000F08EF80F2000F0A1
:1014F00005F800F02BF8002080BD0000B0B540F2E8
:101500000C02C2F2000240F208011278C2F200019D
:101510004FF47A730968B3FBF2F20446B1FBF2F1BF
:10152000084600F01FFB0F2C4FF001050CD858B9EE
:101530004FF0FF3021460022002500F039F840F23C
:101540001000C2F2000004602846B0BD82B041F233
:101550001800C4F202000168022241F0010101609A
:10156000016801F0010101910199416841F0805148
:101570004160406800F08050009000980420C4F260
:101580000100016862F31A61016002B07047000057
:10159000002848BF704700F01F01012202FA01F144
:1015A0004EF200124009CEF2000242F820107047BD
:1015B00010B54EF60C5CCEF2000CDCF80030C3F334
:1015C000022E8EF00704042C28BF0424BEF103036E
:1015D0004FF0FF3E0EFA04F438BF0023A1439940B8
:1015E0000EFA03F39A4300F00F03043B11436344E4
:1015F00009010C3300F16042B0F1FF3FC8BF02F5B2
:101600006443197010BD00004EF60C51CEF200017B
:101610000A684FF6FF031A4060F30A2242F0806026
:1016200040F0FD70086070472DE9F04381B000285C
:1016300000F0858042F20008C4F202080446D8F89F
:1016400000000D4600F0070088420CD2D8F80000D8
:1016500020F007002843C8F80000D8F8000000F088
:101660000700A8426BD1206841F204098107C4F247
:10167000020917D5410705D5D9F8001041F4E061FA
:10168000C9F80010010705D5D9F8001041F46051E0
:10169000C9F80010D9F80010A26821F0F001114338
:1016A000C9F80010C00741D1D8F8000000F00700C9
:1016B000A8420CD9D8F8000020F007002843C8F849
:1016C0000000D8F8000000F00700A84237D12068D9
:1016D000410707D5D9F80010E26821F4E061114311
:1016E000C9F80010000708D5D9F80000216920F4D6
:1016F000605040EAC100C9F80000D9F8002002F0AB
:101700000C00082841F20020C0F27A004ED145F6C4
:101710000613C2F38341C0F60003595CD20339D4E7
:1017200040F60010C0F23D0048433FE060680228E8
:1017300009D0012829D159F8041C890307D40120B4
:1017400001B0BDE8F08359F8041C8901F7D5D9F838
:10175000001021F003010843C9F80000FFF7A6FEBE
:10176000064641F2883700BFD9F80000616800F0F2
:101770000C00B0EB810F97D0FFF798FE801BB842AA
:10178000F2D9032001B0BDE8F08359F8041C8907A1
:10179000D5D5DCE7D9F8002043F60413C2F3404264
:1017A000C0F600039A5C4843B0FBF2F0D9F8001091
:1017B00043F6EC02C1F30311C0F60002515C40F2A3
:1017C000080220FA01F140F21000C2F200000068A5
:1017D000C2F200021160FFF791FE002001B0BDE8E7
:1017E000F083000040F2080041F20401C2F2000060
:1017F000C4F202010068096843F6FC02C1F3022149
:10180000C0F60002515CC8407047000040F208007A
:1018100041F20401C2F20000C4F20201006809684A
:1018200043F6FC02C1F3C221C0F60002515CC8407D
:10183000704700002DE9F04182B0002800F0D78009
:101840000446007841F20006C007C4F2020644D004
:10185000706800F00C00042817D0706800F00C00CD
:10186000082802D17068C0030FD465682DB1B5F5A2
:10187000A02F10D0B5F5803F11D0306820F4803013
:101880003060306820F480200CE03068800324D57C
:10189000606810BBABE0306840F480203060306896
:1018A00040F480303060FFF701FE002D054611D076
:1018B0003068800311D4FFF7F9FD401B6428F7D985
:1018C00016E100BFFFF7F2FD401B64284FF0030054
:1018D00000F28A8030688003F4D42078800718D51D
:1018E000706810F00C0F07D0706800F00C0008282A
:1018F00027D17068C00324D43068800702D52069DE
:10190000012874D13068616920F0F80040EAC10014
:101910003060207800074FD5A06940B30020C4F2A2
:1019200042200121C0F88014FFF7C0FD054600BF2A
:10193000706A80072DD4FFF7B9FD401B0228F7D944
:10194000D6E02069002840F20000C4F2422000F0F6
:10195000A68001210160FFF7A9FD054630688007D8
:10196000D0D4FFF7A3FD401B0228F7D9C0E0002028
:10197000C4F242200021C0F88014FFF797FD05460D
:10198000706A800718D5FFF791FD401B0228F7D930
:10199000AEE040F20800C2F20000006844F6D35105
:1019A000C1F26201A0FB0101480A019000BF019849
:1019B000411E00280191F9D1207840071BD4E56928
:1019C0008DB1706800F00C00082846D1012D0ED0B2
:1019D0007068216A00F480328A4208D1616A00F49A
:1019E0007010884203D1002002B0BDE8F0810120D0
:1019F00002B0BDE8F081F06910F0805808D1F069BC
:101A000040F08050F061F06900F080500090009844
:101A100047F20007C4F200073868C0050FD43868E1
:101A200040F480703860FFF741FD05463868C00516
:101A300005D4FFF73BFD401B6428F7D958E0E56863
:101A40001DB1052D3CD0012D3ED0306A20F00100A3
:101A50003062306A20F0040039E00027C4F24227E7
:101A600000203866FFF722FD022D05460CD100BF8D
:101A70003068800154D5FFF719FD401B02284FF054
:101A80000300F5D9B0E700BF30688001ABD5FFF7A0
:101A90000DFD401B02284FF00300F5D9A4E70021FB
:101AA0000160FFF703FD0546306880077FF531AF21
:101AB000FFF7FCFC401B02284FF00300F4D993E72A
:101AC000306A40F004003062306A40F00100306259
:101AD000FFF7ECFC002D054641F2883714D000BF1B
:101AE000306A800713D4FFF7E1FC401BB842F7D9F6
:101AF000032002B0BDE8F081FFF7D8FC401BB842DC
:101B00004FF003003FF670AF306A8007F4D4B8F1AD
:101B1000000F7FF454AFF06920F08050F0614EE781
:101B2000206AB0F5803F05D17168A26821F40031C8
:101B3000114371607168626A21F4741110430843A3
:101B4000706001203866FFF7B1FC04463068800100
:101B50003FF549AFFFF7AAFC001B02284FF0030036
:101B6000F4D941E7411E0020B0EB116F1CBF0120EA
:101B700070474EF21002CEF2000251604EF6235131
:101B8000CEF20001F0230B700721906011607047C6
:101B9000704700007047000010B590F83C20012A03
:101BA0004FF0020231D0012380F83C3080F83D2014
:101BB0000268D2F804E0D2F808C00C682EF0700376
:101BC000234340F2FF74C4F20004A242536005DCD8
:101BD000B2F1804F0ED040F2004307E042F60043DE
:101BE000C4F201039A4205D040F60003C4F2000398
:101BF0009A4204D149682CF0800319439160012175
:101C0000002280F83D1080F83C20104610BD0000F6
:101C1000002804BF0120704710B5044690F83D002D
:101C200028B9002084F83C00204600F065F8022026
:101C300084F83D00206840F2FF730268C4F200039C
:101C400042F6004C9842C4F2010C05DCB0F1804F22
:101C50000AD040F2004103E0604505D040F60001A3
:101C6000C4F20001884203D1A16822F070020A4345
:101C7000984205DCB0F1804F0AD040F2004103E009
:101C8000604505D040F60001C4F20001884203D14E
:101C9000216922F440720A43A36922F08001D4F83A
:101CA00004E0E268194360450160C262C0F828E0C0
:101CB00002D16169CCF83010012141610269D2077B
:101CC00003D0026922F001020261002084F846106C
:101CD00084F83E1084F83F1084F8401084F84110D6
:101CE00084F8421084F8431084F8441084F84510B6
:101CF00084F83D1010BD000080B582B0006840F24D
:101D00000041C4F20001884201D002B080BD41F21E
:101D10001C00C4F202000168002241F002010160CF
:101D20000068002100F00200019001981D20FFF7DB
:101D30003FFC1D20FFF72CFC02B080BD90F83D1049
:101D400001291CBF01207047022180F83D10006866
:101D500040F2FF72C168C4F20002904241F00101FA
:101D6000C16005DCB0F1804F0ED040F2004107E0C9
:101D700042F60041C4F20101884205D040F600015C
:101D8000C4F20001884206D1816801F007010629EA
:101D900004BF00207047016841F00101016000208C
:101DA0007047000080B590F83C20012A4FF00202F5
:101DB00000F0C280012380F83C3080F83D20D0F84C
:101DC00000C04FF67772DCF8083023EA0202CCF844
:101DD00008200B684F2B28DC1F2B43DD202B44D021
:101DE000302B42D0402B40F0A980D1F804E0C968E4
:101DF000DCF82030DCF8202022F00102CCF8202092
:101E0000DCF8182022F0F00242EA011123F00A0265
:101E100042EA0E02CCF81810CCF82020DCF80810AA
:101E200041F0470121F030017DE06F2B25DDB3F556
:101E3000005F46D0B3F5805F77D0702B7ED1D1E9BB
:101E400001E3C968DCF8082043EA0E0322F47F426C
:101E500043EA01211143CCF80810DCF8081041F0E6
:101E6000770160E00BB1102B68D1DCF8081021F08D
:101E70007001194341F0070155E0502B34D0602B1D
:101E80005CD1D1F804E0C968DCF82030DCF820200F
:101E900022F01002CCF82020DCF8182022F4704246
:101EA00042EA013123F0A00242EA0E12CCF81810E7
:101EB000CCF82020DCF8081041F0670121F0100177
:101EC00031E0D1E901E3C968DCF8082043EA0E03F8
:101ED00022F47F4243EA01211143CCF80810DCF8D8
:101EE000081041F480411EE0D1F804E0C968DCF834
:101EF0002030DCF8202022F00102CCF82020DCF891
:101F0000182022F0F00242EA011123F00A0242EA0C
:101F10000E02CCF81810CCF82020DCF8081041F0A4
:101F2000570121F02001CCF808100022012180F88F
:101F30003D10002180F83C10104680BD0122F5E7DD
:101F40007047000070B504460068C5680669B107AF
:101F500016D515F0020113D06FF0020101610121C5
:101F600021778069800703D02046FFF7E9FF05E06D
:101F7000204600F08BF8204600F08AF800202077F9
:101F8000700718D515F0040015D020686FF0040113
:101F9000016102212177806910F4407F03D020463F
:101FA000FFF7CEFF05E0204600F070F8204600F075
:101FB0006FF800202077300717D515F0080014D0EF
:101FC00020686FF00801016104212177C069800752
:101FD00003D02046FFF7B4FF05E0204600F056F896
:101FE000204600F055F800202077F00618D515F0AF
:101FF000100015D020686FF01001016108212177D1
:10200000C06910F4407F03D02046FFF799FF05E038
:10201000204600F03BF8204600F03AF800202077F8
:10202000F00718BF15F0010002D1300609D412E004
:1020300020686FF001010161204600F02BF83006A6
:1020400009D515F0800006D020686FF0800101618D
:102050002046FFF79DFD700609D515F0400006D01B
:1020600020686FF040010161204600F023F8B006BF
:102070000AD515F0200008BF70BD20686FF0200160
:1020800001612046FFF786FD70BD0000704700002B
:102090007047000080B5006840F20041C4F20001C2
:1020A000884218BF80BD40F23800C2F20000FEF73F
:1020B00087FC80BD7047000070470000704700003B
:1020C000B0B582B0044600680168C368426901F097
:1020D0002F05202D03F0200505D125B1204600F065
:1020E0003BFC02B0B0BD5FEA017C1EBF02F0010EF6
:1020F00003F4907212EB0E0279D1226B012A05D102
:1021000011F0100218BF13F0100235D10A0622D5C3
:1021100013F080021FD094F8411021292AD1A16820
:10212000B1F5805F03D12169002900F03A81216A6D
:102130004A1C226209784160E18C01390A04E18479
:1021400018D1C16821F08001C160C16841F040012F
:10215000C16002B0B0BD49060CD513F0400109D0F2
:10216000C16821F04001C160202084F84100204670
:1021700000F050FA02B0B0BD002101910168019158
:102180004168019101994069400638D4A08DE18DE4
:10219000E28D002A1CBF401A5FEA0041EAD000BF6E
:1021A000216851E8031F226821F4907142E803136B
:1021B000002BF5D1216851E8051F226821F00101AB
:1021C00042E80513002BF5D1202184F842100021AC
:1021D000216300BF216851E8031F226821F010012C
:1021E00042E80313002BF5D1022161634AE0C807DE
:1021F00018BF13F480704BD148074FD455E0E06B03
:10220000016849688AB2002AB4D0A38D9A42B1D23B
:10221000E1858069202830D0206850E8030F2168CC
:1022200020F4807041E80302002AF5D1206850E8CC
:10223000050F216820F0010041E80502002AF5D1D0
:10224000206850E8050F216820F0400041E80502B1
:10225000002AF5D1202084F842000020206300BF2E
:10226000206850E8030F216820F0100041E80302C5
:10227000002AF5D1E06BFEF785FF02206063A08D98
:10228000E18D401A81B22046FFF716FF02B0B0BDC3
:10229000606C40F001006064480706D5BEF1000F95
:1022A00003D0606C40F002006064880706D5BEF180
:1022B000000F03D0606C40F004006064BCF1000FBC
:1022C00006D555EA0E0003D0606C40F0080060644B
:1022D000606C00283FF44EAF11F0200018BF002DB5
:1022E00002D0204600F038FB20684069616C00F0A5
:1022F000400001F00801401847D000BF206850E8B6
:10230000030F216820F4907041E80302002AF5D100
:10231000206850E8050F216820F0010041E805021F
:10232000002AF5D1206B01280AD100BF206850E8AF
:10233000030F216820F0100041E80302002AF5D1C4
:10234000202084F842000020206320684069400675
:1023500022D500BF206850E8050F216820F040001A
:1023600041E80502002AF5D1E06BA8B142F6491117
:10237000C0F600014163FEF725FF00283FF4FAAEE6
:10238000E06B416B884702B0B0BD2046FFF796FE78
:102390000020606402B0B0BD2046FFF78FFE02B09F
:1023A000B0BD216A31F8022B6FF35F2242602162D7
:1023B000C2E60000002804BF0120704710B50446A3
:1023C00090F8410028B9002084F84000204600F031
:1023D0005FF8242084F841002068D4E90212C36821
:1023E00023F40053C360036923F440531A4302618A
:1023F000D4E904231143C268194341F20C639A43A0
:102400001143C1604169A26921F44071114343F64F
:102410000002C4F201029042416102D0FFF7E2F9EA
:1024200001E0FFF7F3F96268192148439100B0FB1E
:10243000F1F048F21F51C5F2EB11A0FB01235A093C
:102440006FF0630302FB0300322303EB0010A0FBD9
:102450000101F02303EA5113206803EB0212C1F3D8
:10246000431111448160016921F490410161416986
:1024700021F02A014161C16841F40051C16000208E
:102480002021606484F8411084F84210606310BD1C
:1024900070B586B040F60004C4F20104006804F58B
:1024A0004051002688420596CDE90366029601D088
:1024B00006B070BD41F21800C4F20200016802AD1E
:1024C00041F480410160016801F48041019101996A
:1024D000016841F0040101600068294600F0040031
:1024E000019001984FF400700290022003900320A5
:1024F00005902046FEF7D0FE4FF48060CDE902063D
:10250000204629460496FEF7C7FE2520002100221A
:10251000FFF74EF82520FFF73BF806B070BD00002E
:10252000704700002DE9F04381B0044690F8410067
:1025300020284AD1894600294FF0010066D016466E
:10254000002A63D04FF0000821201D46C4F84480C3
:1025500084F84100FEF7AAFFA684E684A168064637
:10256000B1F5805F05D12069002814BF4846C846F0
:102570008146E08C68B36F1C0CE0B9F1000F1BD0F2
:1025800019F8010B21684860E08C0138E084E08C88
:10259000F8B100BF206800680006EED4002FF9D023
:1025A000FEF784FF01464FF0030065B3891BA94283
:1025B00029D82068C068EDE738F8020B21686FF36E
:1025C0005F2048604FF00009DEE7022001B0BDE85F
:1025D000F08320680068400614D46F1C04E000BF3C
:1025E0002068006840060DD4002FF9D0FEF75EFF8A
:1025F00001464FF0030035B1891BA94203D820687A
:10260000C068EDE70020202184F8411001B0BDE84A
:10261000F083000070470000FEE700002DE9F0475E
:1026200086B0002741F21800CDE90477CDE90277A2
:10263000C4F20200016840F6000941F01001016097
:102640000168C4F2010901F01001019101990168CA
:1026500009F5006541F0200101600168002201F0E8
:1026600020010191019901684FF4005641F00401E5
:10267000016000684FF4005100F0040001900198DF
:102680002846FEF70DFF4846B02100224FF0B00863
:10269000FEF706FF029602AE4FF0010A022428461A
:1026A0003146CDE903A70594FEF7F6FD48463146CD
:1026B000CDE9028ACDE90474FEF7EEFD4020CDE9B4
:1026C0000207484631460497FEF7E6FD06B0BDE82E
:1026D000F087000080B586B040F2680040F200420A
:1026E0000021C2F20000C4F20002472341F2873CFD
:1026F000CDE90411CDE90211CDE90011C0E90023B3
:10270000C0E9021C01618161FFF782FA002818BF4D
:10271000FEF732FD4FF48050029040F26800C2F2A2
:10272000000002A9FFF73EFB002818BFFEF724FDBA
:102730000020CDE9000040F26800C2F200006946C6
:10274000FFF72AFA002818BFFEF716FD06B080BD75
:1027500080B540F2B00043F60001C2F20000C4F2BE
:10276000010100234FF00C0C4FF4E13280E80E0021
:10277000C0E90333C0E905C3C361FFF71BFE0028AE
:1027800018BFFEF7F9FC80BDFEE7000010B540F66B
:102790000004C4F20104204620210122FEF780FE3D
:1027A000204610210122FEF77BFE10BD2DE9F04FDF
:1027B00081B040F60004C4F2010400928946074645
:1027C000204610210022FEF76BFE47F0800000F04B
:1027D00077F8B9F1000F2DD04FF0000A80274FF0A5
:1027E000000B00BF00250026204620210022FEF716
:1027F00057FE20468021002227FA05F8FEF750FEFA
:10280000204620210122FEF74BFE20464021FEF704
:1028100041FE002805F1010518BF46EA0806082D0B
:10282000E2D100980BF1010B00F80A601FFA8BFA55
:10283000CA45D7D3204610210122FEF731FE01B050
:10284000BDE8F08F70B540F60006C4F201060C46F4
:102850000546304610210022FEF722FE05F07F00DB
:1028600000F02EF8204600F02BF83046102101220F
:10287000FEF716FE70BD0000F0B581B040F6000412
:10288000C4F2010415460E460746204610210022D8
:10289000FEF706FE07F07F0000F012F84EB10020B0
:1028A000002700BF285C00F00BF80137B8B2B04237
:1028B000F8D3204610210122FEF7F2FD01B0F0BD51
:1028C0002DE9F04381B040F600058146C4F20105D0
:1028D00000264FF080080027284620210022FEF71E
:1028E000DFFD28FA06F414EA090228464FF08001B9
:1028F00018BF0122FEF7D4FD284620210122FEF751
:10290000CFFD28464021FEF7C5FD002806F101064F
:1029100018BF2743082EDFD1F8B201B0BDE8F0831D
:10292000FEE70000704700007047000080B5FEF72A
:10293000C3FD80BD7047000080B540F26800C2F260
:102940000000FFF7FFFA80BD80B5406A0021C18515
:10295000C184FFF7B3FB80BD80B582B090F8421010
:1029600022291ED18268B2F5805F02D10169002957
:102970004AD0816AB2F5805F07D00AB9026922B1F4
:102980000268526802F07F0201E0026852680A7031
:102990000121826A11448162C18D01390A04C18515
:1029A00001D002B080BD0168CA6822F02002CA606E
:1029B000CA6822F48072CA604A6922F001024A6140
:1029C000202180F8421000214163026B012A23D1AB
:1029D000016300BF016851E8031F026821F0100184
:1029E00042E80313002BF5D101680A68D20606D528
:1029F000002201920A680192496801910199818D32
:102A0000FFF75AFB02B080BD0168826A49686FF324
:102A10005F2111800221BCE7FFF782FD02B080BD7B
:102A200080B540F2B000C2F20000FFF749FB80BD64
:102A3000FEE7000080B582B0019040F2B000C2F223
:102A4000000001A901226423FFF76CFD019802B088
:102A500080BD000094B0FEF73DFD0AAC2046282161
:102A6000FDF767FB01200A900E904FF4E01000255F
:102A70004FF480310226139020460995CDE9075581
:102A8000CDE90555CDE90B15CDE91161FEF7D2FE73
:102A900018B1EFF3108072B6FEE70F20CDE90506FE
:102AA0004FF48060CDE9080505A802210795FEF7DF
:102AB000BBFD20B1EFF3108072B600BFFEE7FFF759
:102AC000ADFDFFF745FEFFF705FE40F23809C2F203
:102AD00000094846FEF7DAFA01301BA015A108BF2D
:102AE000084600F0DBFE4FF4FA60FEF7C1FB40F24F
:102AF0006800C2F20000FFF721F90FF2600800BF82
:102B0000D9F81800D9E90467FDF719FC05463846DD
:102B10008A46FDF714FC074630460C46FDF70FFCCD
:102B2000029040462A465346CDE90074039100F0D6
:102B30001DF8E5E7424D493237305F496E69742030
:102B40004572726F72000000424D493237305F4962
:102B50006E6974205375636365737300252E326646
:102B60002C252E32662C252E32660A000FB4054B1A
:102B700010B503A9044A029800F000F910BC5DF8F2
:102B800014FB0000352A0008000000204100080264
:102B900018BF04200A0E18BF40F001004FF07F421A
:102BA00032EA010108BF40F00200012808BF0520F9
:102BB00070470121FDF754BCFDF7C6BA0021084655
:102BC000FDF74CBB6FF05E010807FDF749BC02E062
:102BD00008C8121F08C1002AFAD1704770470020A8
:102BE00001E001C1121F002AFBD1704701490860B2
:102BF00070470000040000202DE9FF5F82B0002133
:102C0000DDE90430020DDDF840B0034318D044F68E
:102C10001050A2F2FF3242431514119801281FD020
:102C2000A5EB0B00401C5FEA000A4FF000064E4F78
:102C3000DFF83891B046504615D5CAF1000413E0CC
:102C4000119801244AA3012801D16FEA0B010298CF
:102C5000119AC0E90031C0E9024206B0BDE8F09F18
:102C6000CBF10000DFE704460021404A491842EB5F
:102C70000450CDE9001012E0E00707D032463B4691
:102C800040464946FDF79FFC8046894632463B4612
:102C900010461946FDF797FC06460F466410002CB7
:102CA000EAD1DDE90401DDE90023BAF1000F06DA1B
:102CB000FDF789FC42464B46FDF785FC05E0FDF734
:102CC000F4FC42464B46FDF7F0FC04460E4600225B
:102CD000284BFDF771FD03D84FF0FF30014607E0A8
:102CE0000022254B20463146FDF7C6FBFDF74CFD83
:102CF000102409E0002C0ADB0A220023FDF748FB20
:102D0000039B30321A55641E50EA0102F2D1641C52
:102D1000039AC4F111031444119A012A03D0012229
:102D200008430DD10AE0084304D000204FF0110BF6
:102D3000119072E7A3EB0B056D1E0DE05B4504DD02
:102D40004FF0000205F1010504E003DA4FF0000244
:102D5000A5F10105002AECD002981199C0E90231D1
:102D6000C0E9004579E70000000014400000F03F92
:102D7000300000000000F0430000E03F2DE9FF4F6D
:102D800095B09B468946064600250FE2252877D157
:102D900000242746F84A0121059400E0044316F870
:102DA000013F203B01FA03F01042F7D130782A2886
:102DB00011D06FF02F033078A0F13002092A16D815
:102DC000059A44F0020402EB820203EB4202104433
:102DD000761C0590EFE759F8042B0592002A03DAD8
:102DE000504244F40054059044F00204761C3078BC
:102DF0002E2816D116F8010F44F004042A280DD00D
:102E00006FF02F023078A0F13003092B09D807EBBF
:102E1000870302EB4303C718761CF3E759F8047BDA
:102E2000761C30786C280FD006DC4C2817D0682828
:102E30000DD06A2814D104E0742810D07A280FD15C
:102E40000DE044F400140AE044F4801401E044F47A
:102E500040147278824202D104F58014761C761CEC
:102E6000307866280BD013DC582877D009DC00288E
:102E700075D04528F6D04628F4D047281AD19DE1D0
:102E800018E0632835D0642879D0652812D195E1FF
:102E9000702873D008DC6728F1D069286FD06E28BD
:102EA0000DD06F2806D1B5E073282CD0752875D0C9
:102EB000782874D05A46179990476D1C75E1C4F371
:102EC0000250022809D003280DD0D9F80010042898
:102ED0000DD00D6009F1040967E1D9F80010EA1777
:102EE000C1E90052F6E7D9F800100D80F2E70D7045
:102EF000F0E719F8041B8DF8001000208DF8010090
:102F0000EA46012003E059F804AB4FF0FF306107B7
:102F10004FF0000102D40DE008F101018846B942EA
:102F20000FDA8045F8DB1AF808100029F4D108E020
:102F300008F1010188468142FADB1AF808100029DD
:102F4000F6D105985B46A0EB080721463846179A4C
:102F500000F094FA284400EB080507E04DE029E171
:102F60000DE01AF8010B5A4617999047B8F101087D
:102F7000F7D25B4621463846179A13E142E00A220F
:102F80000092C4F302524FF0000A022A08D059F806
:102F900004CB032A4FEAEC710AD00DE029E02AE0C5
:102FA00009F1070121F00702F2E802C1914609E0A8
:102FB0000FFA8CFC4FEAEC71042A03D14FFA8CFC17
:102FC0004FEAEC71002907DA0A460021DCF1000C17
:102FD00061EB02012D2202E0220504D52B228DF89F
:102FE0000420012203E0E20701D02022F7E7904607
:102FF00059E00A2102E010220DE010214FF0000AF2
:1030000000910BE010224FF0000A44F0040408275E
:10301000009203E008224FF0000A0092C4F302522B
:10302000022A05D059F804CB0021032A08D009E070
:1030300009F1070121F00702F2E802C1914605E01B
:103040001FFA8CFC042A01D10CF0FF0C4FF0000891
:10305000220728D5702806D0009B83F0100353EA7E
:103060000A0305D00EE040228DF80420012208E07A
:103070005CEA010206D030228DF804208DF80500AC
:1030800002229046009B83F0080353EA0A030AD108
:103090005CEA010201D1620705D530228DF80420D7
:1030A0004FF001087F1E582804D034A003900EA8CA
:1030B00002900DE036A0F9E753466046009AFDF70E
:1030C00067F984460398825C0298401E0290027061
:1030D0005CEA0100F0D1029806A9081A00F1200A62
:1030E000600702D524F4803400E00127574502DD53
:1030F000A7EB0A0000E0002000EB0A010090059811
:103100004144401A0590E00306D45B462146179AD5
:10311000059800F0B3F90544002706E001A85A46D7
:10312000C05D179990476D1C7F1C4745F6DBE00397
:103130000CD55B462146179A059800F09FF9054487
:1031400004E030205A46179990476D1C0099481E9C
:1031500000900029F5DC08E0029802995A460078B0
:10316000491C0291179990476D1CBAF10001AAF110
:10317000010AF1DC65E10000092801003031323339
:1031800034353637383961626364656600000000A3
:10319000303132333435363738394142434445468D
:1031A0000000000000F058F90544761C3078002833
:1031B0007FF4ECAD19B02846BDE8F08F620700D46B
:1031C000062709F1070222F0070CFCE80223E1467A
:1031D00003F000485FEA080C02D00FF2702C0DE0FB
:1031E0005FEA045C02D50FF2682C07E05FEAC47C5A
:1031F00002D00FF2602C01E0AFF2700C4FF0FF38FC
:1032000023F00043CDF850C065280CD006DC4528DB
:1032100009D046281DD047283DD13DE0662818D06A
:1032200067287ED138E00021112F01DB112000E05A
:10323000781CCDE9000106A90EA8FFF7DDFCDDE949
:103240000F010E9A03910021009207F1010A0491E7
:103250004DE04FF000400097CDE9011006A90EA8FF
:10326000FFF7CAFCDDE90F0203920E9B11990022C1
:10327000DDF80CA00093049211B9791C00EB010A4F
:10328000B7EB0A0004D4C0F1FF3007F1010A049043
:10329000AAEB0700019044E0012F00DA012700218A
:1032A000112F01DD112000E03846CDE9000106A90B
:1032B0000EA8FFF7A1FCDDE90F010E9A0391002192
:1032C00004910092BA4621070CD40399514500DAC3
:1032D0008A46BAF1010F05DD009AAAF10101515C9D
:1032E000302908D0B84202DA10F1040F06DA0121C1
:1032F000CDE9011015E0AAF10101E9E7002805DC9C
:10330000049901440491AAEB000102E0411C5145DB
:1033100000DD8A460499401A401C01904FF000409D
:103320000290200704D40198504501DBCDF80480B9
:1033300000208DF84F0002980DF14F07B0F1004FBB
:1033400025D02B200E9002984FF0020800280CDAAE
:10335000404202902D200E9007E00A210298FDF7CE
:1033600001F83031029007F8011DB8F10001A8F111
:103370000108F2DC02980028EFD1791E0E9808703F
:10338000307800F0200040F0450007F8020D12A848
:10339000C01B00F107081498007800B1012000EB71
:1033A0000A01019801EBE07105984144401A401E62
:1033B0000590E00306D45B462146179A059800F075
:1033C0005DF805441498007818B15A46179990474B
:1033D0006D1CE00324D55B462146179A059800F042
:1033E0004DF805441CE00498002807DBDDE90301E3
:1033F000884203DD0098405C179901E0179930205E
:103400005A469047049805F10105401C0490019824
:10341000401E019004D12E205A46179990476D1CEA
:10342000BAF10001AAF1010ADDDC05E017F8010B91
:103430005A46179990476D1CB8F10001A8F1010890
:10344000F4DC5B462146179A0598ABE62D00000098
:103450002B000000200000002DE9F041044600256B
:103460001E461746880404D405E039462020B0479C
:103470006D1C641EF9D52846BDE8F0812DE9F041A8
:10348000044600251E469046C80301D5302700E0BB
:103490002027880404D505E041463846B0476D1C16
:1034A000641EF9D52846BDE8F08100002DE9F04101
:1034B00004464FF00E4000EB4400B0F1506F204640
:1034C00055D84FF0FC41B1EB440F1CD224F0004022
:1034D0004FF07E51FCF78DFE4FF0FF31FCF7C0FF3F
:1034E000054600F0EDF914F0004F1DBF2F4F304E90
:1034F00080F000402F4F08BF2F4E4FF04041FCF7A7
:103500007BFE044605E000273E460146FCF774FEBC
:1035100005462A492846FCF76FFE2949FCF714FEA8
:103520002946FCF769FE2749FCF70EFE2946FCF701
:1035300063FE2549FCF708FE2946FCF75DFE23499A
:10354000FCF702FE804629462046FCF755FE414620
:10355000FCF752FE054631462046FCF7F5FD2946AC
:10356000FCF7F2FD3946BDE8F041FCF7EDBD4FF048
:10357000E441B1EB440F08D9FFF708FB042808BF6A
:10358000FFF720FB2046BDE8F0814FF07F41B1EB13
:10359000440F03D2BDE8F041FFF70BBB0120FFF75A
:1035A00025FBBDE8F041FFF709BB00000000C9BFE3
:1035B00022AAFDB90000C93F22AAFD3924FE1C3D04
:1035C000C78AD83C1E67383D1B93993DAFAA2A3E57
:1035D0002DE9F0474FF0684202EB40030C460546E8
:1035E000B3F1654F3CBF02EB4102B2F1654F80F091
:1035F000CD8000BFC0F3C752C1F3C753D21A1B2AF4
:1036000006DD10F0004F14BF87488848BDE8F087FA
:1036100012F11A0F2FDA11F0004F06D010F0004F00
:103620000CBF83488348BDE8F08721462846FCF755
:1036300015FE0646FFF7AAFA042808BFFFF7C2FAEC
:103640002846FFF7A3FA05462046FFF79FFA0446EF
:103650003046FFF79BFA042D18BF052D08D1042C26
:1036600018BF052C04D1002804BF0220FFF7BEFAC2
:103670003046BDE8F0874200B2EB410F25D910F08B
:10368000004F19BF6C4F6D4E6D4F6E4E224685F048
:10369000004415460A4680F0004110460A1A5200BE
:1036A000B2F1807F3ED248406749DFF8A0A110F018
:1036B000004F18D04FF03F483846FCF797FD0746BB
:1036C00051463046FCF792FD17E011F0004F04BF61
:1036D00000263746E2D010F0004F19BF5C4F5D4E18
:1036E0005D4F5E4EDAE74FF07C583846FCF72CFD14
:1036F000074651463046FCF727FD06464146284618
:10370000FCF77AFD2146FCF71FFD82462146404624
:10371000FCF772FD2946FCF76CFD5146FCF79EFD57
:10372000044604E021462846FCF798FD044601467D
:10373000FCF762FD80464A49FCF75EFD4949FCF70B
:1037400003FD4146FCF758FD4749FCF7FDFC4146A7
:10375000FCF752FD4549FCF7F7FC4146FCF74CFDF0
:103760004349FCF7F1FC054641462046FCF744FD81
:103770002946FCF741FD3146FCF7E6FC2146FCF703
:10378000E3FC3946BDE8F047FCF7DEBC4FF07F4272
:10379000B2EB400F28BFB2EB410F03D2BDE8F047B8
:1037A000FFF70ABA40EA01035B0008BF44F0FF419B
:1037B0000AD0B2EB400F08BFB2EB410F06D125F0A3
:1037C000804024F0804105460C4613E7B2EB400FE1
:1037D00012BF5FEA410345F0FF4004F000413FF4AF
:1037E00009AFB2EB410F12BF5FEA400205F00040A3
:1037F00044F0FF413FF4FEAE4A0092EA40033FF539
:10380000F9AE002AACBF4FF09F464FF03E5631460E
:10381000FCF7F2FC054631462046FCF7EDFC044679
:1038200028462146E6E60000DB0FC9BFDB0FC93F93
:10383000DB0F4940DB0F49C00000C9BF22AAFDB918
:103840000000C93F22AAFD390060ED3EC30ACE3711
:10385000000049C022AA7DBA0000494022AA7D3A50
:103860002DAD65BD8FB8D53D0FB511BE61C84C3EBD
:10387000A8AAAABE70B50C460546FCF7B5FF00F035
:103880007040B0F1005F07D024F00040C0F1FF406D
:10389000C00F04BF204670BD284670BD10B5044659
:1038A00001E0FFF7C7F814F8010B04490028F8D12C
:1038B000BDE810400A20FFF7BDB80000000000205E
:1038C00070B50546FCF7EFFF044620F00040C0F15C
:1038D000FF40C00F08D025F00040C0F1FF40C00FEE
:1038E00004BF0120FFF782F9204670BD00000000F0
:1038F00000000000010203040607080900000000A0
:10390000010203040102C82E002E802E3DB1C82EF4
:10391000002E802E9103802EBCB0802EA303C82ED3
:10392000002E802E00B05030212E59F51030212E5F
:103930006AF5802E3B0300000000081901002200F8
:10394000750000100010D100B343802E00C1802EFE
:1039500000C1802E00C1802E00C1802E00C1802EAB
:1039600000C1802E00C1802E00C1802E00C1802E9B
:1039700000C1802E00C1802E00C1802E00C1802E8B
:1039800000C1802E00C1802E00C1802E00C1802E7B
:1039900000C1802E00C1802E00C1802E00C1802E6B
:1039A00000C1802E00C1802E00C1802E00C1802E5B
:1039B00000C1802E00C1802E00C1802E00C1802E4B
:1039C00000C1802E00C1802E00C1802E00C1802E3B
:1039D00000C1802E00C1802E00C1802E00C1802E2B
:1039E00000C1802E00C1802E00C1802E00C1802E1B
:1039F00000C1E05F000000000100000000000000C6
:103A00000000000092000000000000000000000024
:103A100000000000000008190000880000000000FD
:103A2000000005E0AA3805E09030FA0096004B0946
:103A30001100110002002D01D47B3B01DB7A040050
:103A40003F7BCD6CC3048509C304ECE60C46010042
:103A5000270019009600A00001000C00F03C0001B6
:103A60000100030001000E00000032000500EE0618
:103A70000400C80000000400A805EE060004BC0213
:103A8000B3008507000000000000000000000000F7
:103A90000000000000000000B4000100B9000100B7
:103AA00098000000000000000000010080000400F9
:103AB0000000000000000000000000000000000006
:103AC00000000000000000000000000000000000F6
:103AD00000000000000000000000000000000000E6
:103AE00000000000000000000000000000000000D6
:103AF00000000000000000000000000000000000C6
:103B0000802E00C1FD2DDE00EB00DA00000CFF0F5F
:103B10000004C0005BF5C9011EF280003FFF19F4EC
:103B200058F566F564F5C0F1F000E000CD01D30171
:103B3000DB01FF7FFF01E40074F7F300FA00FF3FB1
:103B4000CA036C3856FE44FDBC02F90600FC1202A2
:103B5000AE0158FA9AFD7705BB02960195017F01E7
:103B600082018901870188018A018C018F018D0101
:103B700092019101DD009F017E01DB00B6017069B9
:103B800026D39C071F059D000008BC0537FAA2013B
:103B9000AA01A101A801A001A805B401B401CE00A9
:103BA000D000FC00C501FFFBB10000380030FDF57E
:103BB000FCF5CD01A0005FFF0040FF0000806D0F0D
:103BC000EB007FFFC2F568F7B3F1670F5B0F610F82
:103BD000800F58F75BF7830F8600720F850FC6F1D1
:103BE0007F0F6CF700E000FFD1F5870F8A0FFF030E
:103BF000F03F8B008E009000B9002DF5CAF5CB0187
:103C000020F20000000000000000000000000000A2
:103C100000000000000000000000000000000000A4
:103C20000000000000000000000000000000000094
:103C30000000000000000000000000000000000084
:103C40000000000000000000000000000000000074
:103C50000000000000000000000000000000000064
:103C60000000000000000000000000000000000054
:103C70000000000000000000000000000000000044
:103C80000000000000000000000000000000000034
:103C90000000000000000000000000000000000024
:103CA0000000000000000000000000000000000014
:103CB0000000000000000000000000000000000004
:103CC00000000000000000000000000000000000F4
:103CD0000000000000000000000000000000305064
:103CE000982ED70E5032982EFA030030F07F002E17
:103CF000002ED02E002E018008A2FB2F982EBA0392
:103D0000212E1900012EEE0000B2072F012E1900FE
:103D100000B2032F01500352982E07CC012EDD0074
:103D200000B2272F052E8A000552982EC7C1032EF8
:103D3000E90040B2F07F082F012E190000B2042FD5
:103D40000030212EE900982EB4B1012E180000B2E7
:103D5000102F0550982E4DC30550982E5AC7982EF7
:103D6000F9B4982E54B2982E67B6982E17B2103028
:103D7000212E7700012EEF0000B2042F982E7AB783
:103D80000030212EEF00012ED40004AE0B2F012EA7
:103D9000DD0000B2072F0552982E8E0E00B2022FC2
:103DA0001030212E7D00012E7D000090902EF1021A
:103DB000012ED70000B2042F982E2F0E0030212E96
:103DC0007B00012E7B0000B2122F012ED400009048
:103DD000022F982E1F0E092D982E810D012ED40032
:103DE0000490022F5032982EFA030030212E7B00CF
:103DF000012E7C0000B2902E0903012E7C000131BF
:103E0000010800B2042F982E47CB1030212E7700E6
:103E10008130012E7C00010800B2612F032E890041
:103E2000012ED40098BC98B805B20F58232F0790E4
:103E300009540030372F15410441DCBE44BEDCBAC2
:103E40002C0161000F564A0F0C2FD14294B8C14289
:103E50001130052E6AF72CBD2FB980B20822982E9A
:103E6000C3B7212D6130232ED400982EC3B7003064
:103E7000212E5AF5182DE17F5030982EFA030F525B
:103E80000750504270300D5442427E82E26F80B241
:103E90004242052F212ED4001030982EC3B7032D97
:103EA0006030212ED400012ED4000690182F012E50
:103EB00076000B540752E07F982E7AC1E16F081A02
:103EC0004030082F212ED4002030982EAFB750322A
:103ED000982EFA03052D982E380E0030212ED4008E
:103EE0000030212E7C00182D012ED40003AA012FB2
:103EF000982E450E012ED4003F8003A2012F002EE4
:103F0000022D982E5B0E3030982ECEB70030212E29
:103F10007D005032982EFA03012E770000B2242F34
:103F2000982EF5CB032ED5001154010ABC8483864C
:103F3000212EC901E0401352C4408240A8B9524228
:103F400043BE5342040A5042E17FF0314140F26FD8
:103F500025BD0808020AD07F982EA8CF06BCD16FD5
:103F6000E26F080A8042982E58B70030212EEE00EA
:103F7000212E7700212EDD00802EF4011A2422004C
:103F8000802EEC011050FB7F982EF3035750FB6FEF
:103F9000013071541142420EFC2FC02E0142F05FDD
:103FA000802E00C1FD2D0100000000000000000077
:103FB00000009A013403000000000000000000002F
:103FC00000000000000000000000000000000000F1
:103FD00000000000000000000000000000000000E1
:103FE00000000000000000000000000000000000D1
:103FF00000000000000000000000000000000000C1
:1040000000000000000000000000000000000000B0
:1040100000000000000000000000000000000000A0
:1040200000000000000000002050E77FF67F06320D
:104030000F2E61F5FE09C0B3042F17302F2EEF00AD
:104040002D2E61F5F66FE76FE05FC82E2050E77FF9
:10405000F67F46300F2EA4F1BE0980B3062F0D2E39
:10406000D40084AF022F16302D2E7B0086302D2EEB
:1040700060F5F66FE76FE05FC82E012E77F709BC99
:104080000FB800B21050FB7F10300B2F032E8A00A8
:1040900096BC9FB840B2052F032E68F79EBC9FB810
:1040A00040B2072F032E7E004190012F982EDC0393
:1040B000032C0030212E7E00FB6FF05FB82E2050C5
:1040C000E07FFB7F002E2750982E3BC82950982E6A
:1040D000A7C80150982E55CCE16F2B50982EE0C9FF
:1040E000FB6F0030E05F212E7E00B82E7350013050
:1040F00057541142420EFC2FB82E212E59F5103084
:10410000C02E212E4AF19050F77FE67FD57FC47FE5
:10411000B37FA17F907F827F7B7F982E35B700B2DF
:10412000902E97B0032E8F00072E9100052EB10020
:104130003FBA9FB8012EB100A3BD4C0A052EB100B5
:1041400004BEBFB9CB0A4FBA22BD012EB300DC0AB0
:104150002FB9032EB8000ABE9A0ACFB99BBC012E14
:1041600097009FB8930A0FBC910A0FB8900A252EAA
:104170001800052EC1F52EBD2EB9012E19003130C3
:104180008A040090072F012ED40004A2032F012ED1
:10419000180000B20C2F19500552982E4DB7052E5D
:1041A000780080901030012F212E7800252EDD0020
:1041B000982E3EB700B202300130042F012E1900B4
:1041C00000B2002F2130012EEA00081A0E2F232EF4
:1041D000EA0033301B500B090140175646BE4B080E
:1041E0004C0A01420A8015520142002E012E18008D
:1041F00000B21F2F032EC0F5F030480847AA7430D4
:10420000072E7A0061224B1A052F072E66F5BFBDD7
:10421000BFB9C0900B2F1D562B30D242DB42010498
:10422000C24204BDFE808184232E7A000242023203
:10423000252E62F5052ED6008184252ED60002316A
:10424000252E60F5052E8A000B50900880B20B2FAA
:10425000052ECAF5F03E9008252ECAF5052E59F513
:10426000E03F9008252E59F5906FA16FB36FC46F92
:10427000D56FE66FF76F7B6F826F705FC82EC0508F
:10428000907FE57FD47FC37FB17FA27F877FF67F5A
:104290007B7F002E012E60F5607F982E35B70230AF
:1042A000636F1552507F627F5A2C02321A0900B395
:1042B000142F00B2032F092E180000910C2F437FFA
:1042C000982E97B71F50028A02320430252E64F5CB
:1042D0001552506F436F4443252E60F5D908C0B284
:1042E000362F982E3EB700B2062F012E190000B2CD
:1042F000022F506F00900A2F012E79000090192F85
:104300001030212E79000030982EDC03132D012E61
:10431000C3F50CBC0FB81230100403B02625215091
:104320000352982E4DB71030212EEE000230607FE0
:10433000252E7900606F0090052F0030212EEA00B5
:104340001550212E64F51552232E60F50232506F60
:104350000090022F0330272E7800072E60F51A09EF
:104360000091A32F19090091A02F906FA26FB16F38
:10437000C36FD46FE56F7B6FF66F876F405FC82E9A
:10438000C050E77FF67F26300F2E61F52F2E7C0080
:104390000F2E7C00BE09A27F807F80B3D57FC47FB3
:1043A000B37F917F7B7F0B2F23501A251240427FD2
:1043B00074821240527F002E0040607F982E6AD691
:1043C0008130012E7C00010800B2422F032E8900AB
:1043D000012E890097BC06BC9FB80FB80090232E11
:1043E000D800103001302A2F032ED40044B2052FFC
:1043F00047B200302D2F212E7C002B2D032EFDF5F2
:104400009EBC9FB84090142F032EFCF599BC9FB81A
:1044100040900E2F032E49F125544A084090082F52
:10442000982E35B700B21030032F5030212ED40013
:10443000102D982EAFB70030212E7C000A2D052EAE
:1044400069F72DBD2FB980B2012F212E7D00232EBB
:104450007C00E031212E61F5F66FE76F806FA26F6F
:10446000B36FC46FD56F7B6F916F405FC82E605183
:104470000A253688F47FEB7F003231523230133018
:10448000982E15CB0A253384D27F433005502D5208
:10449000982E95C1D26F2752982ED7C72A25B0865D
:1044A000C07FD37FAF842950F16F982E4DC82A2545
:1044B000AE8AAA88F26E2B50C16FD36FF47F982E0C
:1044C000B6C8E06E00B2322F33548386F16FC37FDB
:1044D00004303030F47FD07FB27FE330C56F564078
:1044E0004541280803140EB408BC8240100A2F541A
:1044F0002605917F4428A37F982ED9C008B9333070
:104500005309C16FD36FF46F831747406C15B26FB7
:10451000BE09750B90424542510E32BC0289A16F13
:104520007E86F47FD07FB27F0430916FD62FEB6F01
:10453000A05EB82E032E97001BBC60509FBC0CB829
:10454000F07F40B2EB7F2B2F032E7F004140012EE6
:10455000C800011A112F3758232EC8001041A07F20
:1045600038810141D07FB17F982E64CFD06F078012
:10457000A16F1142002EB16F01421130012EFC00DB
:1045800000A80330CB224A25012E7F003C893552FA
:104590000554982EC4CEC16FF06F982E95CF042D80
:1045A0000130F06F982E95CFEB6FA05FB82E032EE1
:1045B000B3000232F030033130508A080808CB08CB
:1045C000E07F80B2F37FDB7F252F032ECA0041906E
:1045D000042F0130232ECA00982E3F03C0B2052FAE
:1045E000032EDA0000304104232EDA00982E92B216
:1045F0001025F06F00B2052F012EDA0002301004F2
:10460000212EDA0040B2012F232EC801DB6FE06FAC
:10461000D05F802E95CF0130E06F982E95CF11306E
:10462000232ECA00DB6FD05FB82ED0500A2533840A
:104630005550D27FE27F038CC07FBB7F0030055A8C
:1046400039545141A57F967F807F982ED9C005307F
:10465000F57F2025916F3B583D5C3B56982E67CCEB
:10466000C16FD56F52405043C17FD57F1025982E22
:10467000FEC91025982E74C0866F3028926F828CE8
:10468000A56F6F52690E3954DB2F19A01530032F17
:104690000030212E81010A2D012E8101052842368C
:1046A000212E8101020E012F982EF3035750123054
:1046B0000140982EFEC9516F0B5C8E0E3B6F575810
:1046C0000230212E9501456F2A8DD27FCB7F132F8B
:1046D00002303F50D27FA80E0E2FC06F53540200FD
:1046E0005154420E103059520230012F002E032D2A
:1046F000504242421230D27F80B2032F0030212E2E
:104700008001122D012EC9000280052E800111307A
:1047100091280040252E8001100E052F012E7F01CB
:104720000190012F982EF303002EA0410190A67F47
:10473000902EE3B4012E950100A8902EE3B45B54B3
:104740009580824080B202402D8C3F52967F902E01
:10475000C2B3290E762F012EC90000408128455290
:10476000B330982E0FCA5D54807F002EA140727F17
:1047700082808240607F982EFEC91025982E74C0DA
:10478000626F05308740C0910430052F052E8301EC
:1047900080B21430002F0430052EC900736F8140A1
:1047A000E2406904110FE1401630FE29CB40022F90
:1047B000836F830F222F4756130F1230772F4954E0
:1047C000420E1230732F00910A2F012E8B0119A86F
:1047D00002306C2F6350002E17420542682C1230B5
:1047E0000B25080F5030022F212E8301032D40305E
:1047F000212E83012B2E85015A2C123000912B255E
:10480000042F635002301742172C0242982EFEC923
:104810001025982E74C0052EC90081845B3082401B
:10482000372E8301020E072F5F5240306240414015
:10483000910E012F212E830105302B2E8501123080
:10484000362C16301525817F982EFEC91025982EFE
:1048500074C019A21630152F052E9701806F820E95
:10486000052F012E86010628212E86010B2D032EF1
:1048700087015F544E289142002E8240900E012FF6
:10488000212E88010230132C0530C06F081CA80FA0
:10489000163005305B50092F02802D2E8201054213
:1048A0000580002E02423E80002E06420230906FAC
:1048B0003E88014004414C280142078010252440D5
:1048C000004000A8F522232944427A827E88434092
:1048D000044100ABF523DF284342D9A0142F0090F8
:1048E000022FD26F81B2052F635406289042854271
:1048F000092C02305B500380292E7E012B2E820171
:10490000054212302B2E83014582002E40407A82D0
:1049100002A0082F63503B30154205423780372EE6
:104920007E0105421230012EC900028C40408441B4
:104930007A8C040F032F012E8B0119A4042F2B2E28
:104940008201982EF303123081906152082F654244
:104950006542438039848288054245428542054349
:10496000002E80410090902EE1B46554C16F8040CC
:1049700000B243586950442F555CB7878C0F0D2EF9
:104980009601C440362F41568B0E2A2F0B52A10E92
:104990000A2F052E8F011425982EFEC94B54020FA5
:1049A000695005306554152F032E8E014D5C8E0F16
:1049B0003A2F052E8F01982EFEC94F54820F0530D5
:1049C00069506554302F6D521530428C4542043089
:1049D0002B2C84436B52428C002E85431530242CA3
:1049E00045428E0F202F0D2E8E01B10E1C2F232E2F
:1049F0008E011A2D0E0E172FA10F152F232E8D01AC
:104A0000132D982E74C04354C20E0A2F6550048093
:104A10000B3006820B42798041401230252E8C01EA
:104A2000014205306950655484824384BE8C8440C1
:104A3000864126299442BE8ED57F19A143400B2E74
:104A40008C018440C7415D29272945428442C27FA9
:104A5000012FC0B31D2F052E940199A0012F80B303
:104A6000132F80B3182FC0B3162F12400140927F2E
:104A7000982E74C0926F100F2030032F1030212E0B
:104A80007E010A2D212E7E01072D2030212E7E0150
:104A9000032D1030212E7E01C26F012EC900BC846F
:104AA000028082400040900ED56F022F1530982E64
:104AB000F30341910530072F67503D802B2E8F0166
:104AC00005420480002E0542022C00300030A26F07
:104AD000988A864080A7052F982EF303C030212E98
:104AE000950106251A25E26F768296405643510EAF
:104AF000FB2FBB6F305FB82E012EB800013141088B
:104B000040B22050F2300208FB7F0130102F052EFA
:104B1000CC008190E07F032F232ECC00982E55B639
:104B2000982E1DB51025FB6FE06FE05F802E95CFAE
:104B3000982E95CF1030212ECC00FB6FE05FB82E61
:104B400000510558EB7F2A2589526F5A895013412D
:104B50000640B3011642CB160640F3021342650E1F
:104B6000F52F054014302C29044208A10030902E66
:104B700052B6B388B08AB684A47FC47FB57FD57F90
:104B8000927F73300430554042408A17F3086B011E
:104B9000900253B84B82ADBE717F450A0954847FA1
:104BA000982ED9C0A36F7B54D042A37FF27F607F41
:104BB0002025716F755A7758795C7556982E67CC99
:104BC000B16F626F5042B17FB3301025982E0FCA7B
:104BD000846F2029716F926FA56F76826A0E733091
:104BE0000030D02FD26FD17FB47F982E2BB715BD58
:104BF0000BB8020AC26FC07F982E2BB715BD0BB839
:104C0000420AC06F081741188916E118D018A17F11
:104C100027251625982E79C08B54907FB33082407B
:104C200080900D2F7D52926F982E0FCAB26F900E0A
:104C3000062F8B501430426F516F144212420142C2
:104C4000002E316F982E74C0416F807F982E74C0F3
:104C5000826F10044352010F052ECB000030043048
:104C6000212F516F43588C0E04301C2F8588416FC3
:104C700004418C0F0430162F8488002E0441040553
:104C80008C0E04300F2F8288316F044104058C0E86
:104C90000430082F8388002E04418C0F0430022F2B
:104CA000212EAD0114300091142F032EA10141904B
:104CB0000E2F032EAD0114304C28232EAD0146A03B
:104CC000062F81848D5248828240212EA1014242CA
:104CD0005C2C0230052EAA0180B20230552F032E23
:104CE000A901926FB330982E0FCAB26F900F0030A7
:104CF00002304A2FA26F875291008552510E022F27
:104D0000002E432C0230C26F7F52910E02303C2F96
:104D1000516F8154982EFEC91025B3302125982E4D
:104D20000FCA326FC07FB3301225982E0FCA426F60
:104D3000B07FB3301225982E0FCAB26F90288352DD
:104D4000982EFEC9C26F900F003002301D2F052E25
:104D5000A10180B212300F2F426F032EAB01910ED2
:104D60000230122F526F032EAC01910F02300C2F24
:104D7000212EAA010A2C1230032ECB008D5808894F
:104D8000414011430043252EA101D46F8F520043AF
:104D90003A89002E10431043610EFB2F032EA00111
:104DA000111A022F0225212EA001EB6F005FB82EF1
:104DB000915210300230955652424B0EFC2F8D54BA
:104DC0008882935680425342404242868354C02E8A
:104DD000C242002EA3520051524047401A25012ED4
:104DE00097008FBE7286FB7F0B307CBFA5501008EA
:104DF000DFBA7088F8BFCB42D37F6CBBFCBBC50A5F
:104E0000907F1B7F0B43C0B2E57FB77FA67FC47F37
:104E1000902E1CB7072ED200C0B20B2F9752012E36
:104E2000CD00827F982EBBCC0B30372ED200826F04
:104E3000906F1A2500B28B7F142FA6BD25BDB6B981
:104E40002FB980B2D4B00C2F99549B560B300B2E37
:104E5000B100A1589B42DB426C092B2EB1008B4262
:104E6000CB42867F7384A756C30839520550727FA0
:104E7000637F982EC2C0E16F626FD10A012ECD0010
:104E8000D56FC46F726F97529D5C982E06CD236FBD
:104E9000906F9952C0B204BD5440AFB94540E17F14
:104EA0000230062FC0B20230032F9B5C12309443B5
:104EB000854303BF6FBB80B3202F066F2601166F9B
:104EC0006E034542C090292ECE009B52142F9B5C4E
:104ED000002E93418641E304AE0780AB042F8091FE
:104EE0000A2F866F730F072F836FC0B2042F5442AF
:104EF00045421230042C1130022C1130113002BC0A
:104F00000FB8D27F00B20A2F012EFC00052EC70178
:104F1000101A022F212EC701032D022C013001305F
:104F2000B06F982E95CFD16FA06F982E95CFE26F6E
:104F30009F52012ECE00824050420C2C4242113032
:104F4000232ED2000130B06F982E95CFA06F013084
:104F5000982E95CF002EFB6F005FB82E8386013010
:104F60000030944024180600530E4F02F92FB82E3B
:104F7000A952002E604041400DBC98BCC02E010AD1
:104F80000FB8AB52533C524040404B00821626B9FA
:104F900001B84140100897B80108C02E113001082F
:104FA000438625400440D8BE2C0B22115442038076
:104FB0004B0EF62FB82E9F501050AD52052ED30039
:104FC000FB7F002E13409342410EFB2F982EA5B776
:104FD000982E87CF012ED90000B2FB6F0B2F012E28
:104FE00069F7B13F01080130F05F232ED900212E6F
:104FF00069F7802E7AB7F05FB82E012EC0F8032E25
:10500000FCF51554AF5682080B2E69F7CB0AB15840
:105010008090DDBE4C085FB959228090072F033481
:10502000C308F23A0A080235C0904A0A4822C02E44
:10503000232EFCF51050FB7F982E56C7982E49C39F
:105040001030FB6FF05F212ECC00212ECA00B82E4D
:10505000032ED30016B802344A0C212E2DF5C02E93
:10506000232ED30003BC212ED500032ED50040B241
:105070001030212E77000130052F052ED8008090AA
:10508000012F232E6FF5C02E212ED900113081085B
:10509000012E6AF7713F23BD0108020AC02E212E9E
:1050A0006AF730250030212E5AF51050212E7B0052
:1050B000212E7C00FB7F982EC3B74030212ED400D8
:1050C000FB6FF05F0325802EAFB7802E00C1802ECE
:1050D00000C1802E00C1802E00C1802E00C1802E14
:1050E00000C1802E00C1802E00C1802E00C1802E04
:1050F00000C1802E00C1802E00C1802E00C1802EF4
:1051000000C1802E00C1012E5DF708BC80AC0EBB33
:10511000022F003041048206C0A40030112F40A9A4
:10512000032F40910D2F00A70B2F80B3B358022FF0
:1051300090A12613202380901030012FCC0E002F39
:105140000030B82EB550180808BC88B60D17C6BD7B
:1051500056BCB758DABA04011D0A10500530322582
:105160004503FB7FF6302125982E37CA16B59ABC29
:1051700006B880A8410A0E2F8090022F2D50480FAC
:10518000092FBFA0042FBF90062FB754CA0F032FBB
:10519000002E022CB7522D52F233982ED9C0FB6F3D
:1051A000F137C02E0108F05FBF56B954D040C4405B
:1051B0000B2EFDF3BF529042944295420530C150F0
:1051C0000F88064004419642C54248BE73300D2EFA
:1051D000D8004FBA8442034281B3022F2B2E6FF5C1
:1051E000062D052E77F7BD569308252E77F7BB546D
:1051F000252EC2F5072EFDF34230B433DA0A4C00F7
:10520000272EFDF34340D43FDC084342002E002EFE
:1052100043402430DC0A43420480032EFDF34A0A53
:10522000232EFDF36134C02E0142002E60501A255A
:105230007A86E07FF37F0325C3524184DB7F3330DE
:10524000982E16C21A257D82F06FE26F3225164025
:105250009440260185408E17C4426E039542410E4C
:10526000F42FDB6FA05FB82EB051FB7F982EE80DB6
:105270005A25982E0F0ECB583287C47F65896B8DC7
:10528000C55A657FE17F837FA67F747FD07FB67F1D
:10529000947F1730C752C954517F002E856F427FCB
:1052A000002E51414581424113403B8A00404B044E
:1052B000D006C0AC857F022F02305104D306418452
:1052C00005305D02C916DF08D3008D02AFBCB1B94D
:1052D000590A656F1143A1B4524153410143347FD0
:1052E000657F2631E56FD46F982E37CA326F756FA0
:1052F00083404241237F127FF63040255125982E6E
:1053000037CA146F2005706F256F6907A26F316F60
:105310000B3004429B428B425542327F40A9C36FFF
:10532000717F0230D040C37F032F4091152F00A71B
:10533000132F00A4112F84BD982E79CA556FB7542E
:1053400054418200F33F4541CB02F630982E37CAD4
:10535000356FA46F4143032C0043A46F356F1730A2
:10536000426F516F934042820041C3000343517F1B
:10537000002E944041414C02C46FD156630E746FAD
:105380005143A57F8A2F092ED80001B3212FCB5876
:10539000906F1341B66FE47F002E9141144092410B
:1053A0001540172E6FF5B67FD07FCB7F982E000C5F
:1053B0000715C26F140B292E6FF5C3A3C18FE46FBD
:1053C000D06FE62F1430052E6FF5140B292E6FF5D4
:1053D000182DCD560432B56F1C0151415241C340C6
:1053E000B57FE47F982E1F0CE46F218700430432C1
:1053F000CF545A0EEF2F1554092E77F7220B292E72
:1054000077F7FB6F505EB82E1050012ED40000B21B
:10541000FB7F512F01B2482F02B2422F0390562F2B
:10542000D75279804240818400404242982E930CAA
:10543000D954D750A14098BD82403E82DA0A4440F8
:105440008B16E3005342002E43409A025242002E34
:10545000414015544A0E3A2F3A8200304140212EE5
:10546000850F40B20A2F982EB10C982E450E982E1B
:105470005B0EFB6FF05F0030802ECEB7DD52D35451
:1054800042424F847330DB5283421B306B422330E5
:10549000272ED700372ED400212ED6007A84172C41
:1054A00042423030212ED400122D21300030232EE4
:1054B000D400212E7BF70B2D1730982E510CD55090
:1054C0000C8272302F2ED400252E7BF74042002E06
:1054D000FB6FF05FB82E70500A253986FB7FE132F2
:1054E0006230982EC2C4B556A56FAB08916F4B08B9
:1054F000DF56C46F23094DBA93BC8C0BD16F0B09D7
:10550000CB52E15E5642AF094DBA23BD940AE56F16
:1055100068BBEB08BDB963BEFB6F5242E30AC02E05
:105520004342905FD150032E25F3134000409BBCB3
:105530009BB408BDB8B998BCDA0A08B68916C02E63
:10554000190062021050FB7F982E810D012ED400AD
:1055500031300804FB6F0130F05F232ED600212E7E
:10556000D700B82E012ED700032ED600480E012FEB
:10557000802E1F0EB82EE350213401428230C132FA
:10558000252E62F50100223001404A0A0142B82E60
:10559000E354F03B8340D808E55283420030833027
:1055A0005042C432272E64F5940050424042D33F0B
:1055B00084407D82E30840428342B82EDD520030B1
:1055C00040427C86B952092E700FBF54C442D38624
:1055D0005440554094428542212ED7004240252E0A
:1055E000FDF3C0427E82052E7D0080B2142F052E71
:1055F000890027BD2FB98090022F212E6FF50C2D29
:10560000072E710F14301C09052E77F7BD5647BEC3
:105610009308940A252E77F7E75450424A0EFC2F40
:10562000B82E505002304386E550FB7FE37FD27F97
:10563000C07FB17F002E414000404804982E74C0C6
:105640001EAAD36F1430B16FE322C06F5240E46FD3
:105650004C0E1242D37FEB2F032E860F4090113059
:10566000032F232E860F022C0030D06FFB6FB05F0C
:10567000B82E4050F17F0A253C86EB7F4133223023
:10568000982EC2C4D36FF430DC094758C26F940916
:10569000EB586ABBDC08B4B9B1BDE95A950821BD25
:1056A000F6BF770B51BEF16FEB6F52425442C02EE2
:1056B0004342C05F5050F55031301142FB7F7B3088
:1056C0000B4211300280233301420300072E800376
:1056D000052ED3002352E27FD37FC07F982EB60ED3
:1056E000D16F080A1A257B86D07F01331230982E9D
:1056F000C2C4D16F080A00B20D2FE36F012E8003E0
:105700005130C786232E21F208BCC042982EA5B77F
:10571000002E002ED02EB06F0BB8032E1B00081ADF
:10572000B07F7030042F212E21F2002E002ED02EBB
:10573000982E6DC0982E5DC0ED50982E44CBEF5042
:10574000982E46C3F150982E53C73550982E64CFEB
:105750001030982EDC032026C06F02311242AB338A
:105760000B42378001300142F337F752FB5044407F
:10577000A20A42428B31092E5EF7F954E3088342B4
:105780001B4223334B00BC840B40333083420B421B
:10579000E07FD17F982E58B7D16F803040420330E0
:1057A000E06FF3540430002E002E0189620EFA2FB0
:1057B00043421130FB6FC02E0142B05FC14A00006E
:1057C0006D570000778E0000E0FFFFFFD3FFFFFF63
:1057D000E5FFFFFFEEE1FFFF7C13000046E6FFFF61
:1057E00000000000000000000000000000000000B9
:1057F00000000000000000000000000000000000A9
:105800000000000000000000000000000000000098
:1058100000000000000000000000802E00C1802E6B
:1058200000C1802E00C1802E00C1802E00C1802EBC
:1058300000C1802E00C1802E00C1802E00C1802EAC
:1058400000C1802E00C1802E00C1802E00C1802E9C
:1058500000C1802E00C1802E00C1802E00C1802E8C
:1058600000C1802E00C1802E00C1802E00C1802E7C
:1058700000C1802E00C1802E00C1802E00C1802E6C
:1058800000C1802E00C1802E00C1802E00C1802E5C
:1058900000C1802E00C1802E00C1802E00C1802E4C
:1058A00000C1802E00C1802E00C1802E00C1802E3C
:1058B00000C1802E00C1802E00C1802E00C1802E2C
:1058C00000C1802E00C1802E00C1802E00C1802E1C
:1058D00000C1802E00C1802E00C1802E00C1802E0C
:1058E00000C1802E00C1802E00C1802E00C1802EFC
:1058F00000C1802E00C1802E00C1802E00C1802EEC
:1059000000C1802E00C102030405060708090A0B26
:105910000C0D0E0F10100000385900080000002078
:1059200018000000CE2B0008505900081800002075
:10593000E8040000DE2B000800000000000000006A
:1059400000127A00010000001000000000000000BA
:04000005080000ED02
:00000001FF
