:020000040800F2
:1000000090050020A1010008F71B000857190008FF
:10001000F51B00084F070008F92000080000000049
:10002000000000000000000000000000FB1B0008B2
:100030000108000800000000F91B0008FD1B000873
:10004000BB010008BB010008BB010008BB010008A0
:10005000BB010008BB010008BB010008BB01000890
:10006000BB010008BB010008BB010008BB01000880
:10007000BB010008BB010008BB010008BB01000870
:10008000BB010008BB010008BB010008BB01000860
:10009000BB010008BB010008BB010008BB01000850
:1000A000BB010008BB010008BB010008BB01000840
:1000B000BB010008BB010008BB010008BB01000830
:1000C000BB010008BB010008BB010008BB01000820
:1000D000BB010008BB010008BB010008BB01000810
:1000E000BB010008BB010008BB010008BB01000800
:1000F000BB010008BB010008BB010008BB010008F0
:10010000BB010008BB010008BB010008BB010008DF
:10011000BB010008BB010008BB010008BB010008CF
:10012000BB01000851070008BB010008BB01000823
:10013000BB010008BB010008BB010008BB010008AF
:10014000BB010008BB010008BB010008BB0100089F
:10015000BB010008BB010008BB010008ED2000083E
:10016000BB010008BB010008BB010008BB0100087F
:10017000BB010008BB010008BB0100080000000033
:10018000BB010008BB010008DFF810D000F05EFAE8
:10019000004800472D300008AFF300809005002094
:1001A0000648804706480047FEE7FEE7FEE7FEE711
:1001B000FEE7FEE7FEE7FEE7FEE7FEE7951C000828
:1001C000890100082DE9F05F0546002092469B4614
:1001D00088460646814640241BE02846414647465D
:1001E000224600F06AF853465A46C01A914110D38D
:1001F00011461846224600F051F82D1A67EB010807
:100200004F4622460120002100F048F817EB000974
:100210004E41201EA4F10104DFDC484631462A4647
:100220004346BDE8F09FD2B201E000F8012B491E21
:10023000FBD270470022F6E710B513460A46044683
:100240001946FFF7F0FF204610BD00F0004230F0E5
:1002500000400AD0C10D01F56071C0F3160042EAFA
:100260000151C20840071143704700200146704702
:1002700030B50B46014600202022012409E021FA76
:1002800002F59D4205D303FA02F5491B04FA02F573
:100290002844151EA2F10102F1DC30BD202A04DB46
:1002A000203A00FA02F1002070479140C2F1200389
:1002B00020FA03F3194390407047202A04DB203AC8
:1002C00021FA02F00021704721FA02F3D040C2F176
:1002D000200291400843194670472DE9FE4F8046A1
:1002E00081EA0300C00F0C46009021F0004123F08A
:1002F0000045B8EB0200A94105D240462146904690
:100300001C460B46024623F00040104347D0270D01
:10031000C7F30A00C3F30A510290401A0190402823
:100320006BDAC3F3130040F4801B0098924620B1AF
:100330000023D2EB030A63EB0B0B01985946C0F183
:1003400040025046FFF7AAFF06460D465046594662
:10035000019A00F08DF910EB08006141002487EA52
:10036000115284EAE7731A4340D0009A62B3019AAB
:10037000012A4FEA075215DC001B61EB02014FF026
:10038000004202EA0752CDE90042001C41F580110B
:1003900032462B4600F08DF903B0BDE8F08F4046A1
:1003A0002146F9E7001B61EB0201001C41F58013B7
:1003B00000185B412018A2F5001747EB030140EA43
:1003C000D570B6196D4111E06D084FEA360645EA61
:1003D000C0754FEA0752001B61EB0201001C41F59A
:1003E000801149084FEA30000019514132462B462E
:1003F00003B0BDE8F04F00F04DB900980122400075
:100400000023D0EB020263EBE073009821464FEA31
:10041000E074B8EB000061EB0401E9E783F000430E
:100420005BE781F0004158E72DE9FE4F81EA0304C4
:1004300004F0004421F0004100944FF0000B23F041
:10044000004350EA01045ED052EA03045BD0C3F3D8
:100450000A54C1F30A552C44A4F2F3340194A0FBCE
:100460000254C1F3130141F48011C3F3130343F4A5
:10047000801301FB024400FB034E840A970A44EAFE
:10048000815447EA8357A4FB076802958D0A05FB50
:1004900007854FEA932C04FB0C542705029D4FEA75
:1004A000065847EA1637B5EB08056EEB070C870EC2
:1004B000920E47EA811742EA8312A7FB0201B6EBCC
:1004C0000B0164EB00042B0D43EA0C335E1844EB84
:1004D0001C50DA465146E7FB0201C5F313044FEA0C
:1004E0000B3343EA14534FEA0432019C43EA0603F8
:1004F000A4F10C040294009CCDE900B400F0D9F8FA
:1005000003B0BDE8F08F00200146F9E72DE9F04D7A
:1005100081EA030404F0004B21F0004514464FF03B
:10052000000A23F0004150EA050220D054EA0102FB
:100530001DD0C5F30A570246C5F31303C1F31300D8
:10054000C1F30A5640F4801543F48013A7EB060864
:10055000101BD64608F2FD3873EB050002D308F1F4
:10056000010801E092185B41B8F1000F03DA0020A6
:100570000146BDE8F08D00204FF480110646844608
:100580000EE0171B73EB050705D3121B63EB050386
:1005900006434CEA010C49084FEA300092185B41CF
:1005A00050EA0107EDD152EA030012D082EA0400BA
:1005B00083EA0501084305D0101BAB4106D2012296
:1005C000002306E000224FF0004302E06FF001023A
:1005D00053101AEB06004CEB085110EB0A0041EBEC
:1005E0000B01BDE8F04D00F055B8C1F30A52C1F35C
:1005F000130140F2FF3341F480119A4202DA0020E5
:100600000146704740F233439A42A2F2334202DC81
:100610005242FFF752BEFFF741BE000030B5041E44
:1006200071F1000404DB4FF00044404264EB01012F
:10063000141E73F1000405DB1C464FF000435242C8
:1006400063EB0403994208BF904230BD064C074D4E
:1006500006E0E06840F0010394E807009847103492
:10066000AC42F6D3FFF794FDB8320008D832000848
:10067000202A06DBCB17203A41FA02F043EAE07366
:1006800006E041FA02F3D040C2F120029140084353
:100690001946704710B5141E73F1000408DA401CA7
:1006A00041F1000192185B411A4301D120F0010091
:1006B00010BD2DE9F04D92469B4611B1B1FA81F281
:1006C00002E0B0FA80F220329046FFF7E7FD0446E0
:1006D0000F4640EA0A0041EA0B0153465A460843D6
:1006E00013D0114653EA010019D0C8F14002504618
:1006F000FFF7E3FD05460E46504659464246FFF7D2
:10070000CDFD084305D0012004E020463946BDE870
:10071000F08D0020054346EAE0762C4337430A98E3
:100720006305E40AA0EB08000022FD0A44EA4754EE
:100730000A3002D500200146E9E701051019694198
:10074000DDE9084500196941BDE8F04DA2E7FEE783
:10075000014800F0B3B80000E80000200168182349
:10076000CAB2103AB2FBF3F2054B6FF30901032A48
:100770009B5CC36500D9091D816508467047000070
:100780007832000810B5014600208B698A6A4FF064
:10079000C07453B1B3F5005F15D072B1012A0CD00B
:1007A000022A0AD0032A09D104E01AB1012A06D08C
:1007B000022A03D1C96AC90100D5012010BDC96A46
:1007C000A142FAD010BD002AF7D0012AF2D0022AA5
:1007D000F3D0032AF3D010BD30B50468256825F4A2
:1007E00080252560046863608368402B036803D01C
:1007F00099600068C26030BD9A600068C16030BD19
:10080000704772B6FEE72DE9F0410446876D00F0AF
:10081000D1FA064694F835000025022806D080203B
:10082000606584F834500120BDE8F08120680168DB
:1008300021F0160101602068416921F080014161C9
:10084000206C08B9A06C20B12068016821F0080173
:1008500001602068016821F0010101600CE000F0F6
:10086000A9FA801B052807D920206065032084F899
:10087000350084F83450D7E720680068C007EED10F
:1008800094F85C103F208840B860012084F835005F
:1008900084F834500020C7E790F83510022903D0BF
:1008A0008021416501207047052180F835100068DE
:1008B000016821F001010160002070472DE9F84333
:1008C00004464FF00009CDF8009063484FF41651EC
:1008D000A56D0068B0FBF1F72E6894F85C10082055
:1008E00000FA01F131420FD021680A6852070BD596
:1008F0000A6822F004020A6094F85C108840A8603C
:10090000606D40F00100606594F85C104FF00108E4
:1009100008FA01F0304208D021684969090604D577
:10092000A860606D40F00200606594F85C100420DF
:100930008840304208D021680968890704D5A8603A
:10094000606D40F00400606594F85C1010208840F1
:10095000304218D021680968090714D5A8602068BA
:100960000168490304D50068000308D5A16C07E0BD
:100970000168C90503D4016821F008010160216CF8
:1009800009B12046884794F85C1020208840304206
:1009900031D021680968C9062DD5A86094F83500C2
:1009A00005282068016806D0490347D50068000380
:1009B0001DD4616C1CE021F01601016020684169C2
:1009C00021F080014161206C08B9A06C20B1206841
:1009D000016821F00801016094F85C103F20884014
:1009E000A86084F8358084F83490216D1FE0E16BB5
:1009F00009B120468847606D00282BD0606DC00784
:100A000014D0052084F835002068016821F0010128
:100A100001600098401C0090B84203D8206800682C
:100A2000C007F6D184F8358084F83490E16C002951
:100A300010D001B02046BDE8F04308470168C90561
:100A4000D5D4016821F01001016084F8358084F864
:100A50003490CCE7BDE8F883200000202DE9F04178
:100A6000044600F0A7F906465CB1022084F8350080
:100A7000002584F834502068016821F001010160EC
:100A80000DE00120BDE8F08100F094F9801B0528FD
:100A900005D920206065032084F83500F2E720683E
:100AA0000068C007F0D12268116820480140D4E9ED
:100AB00001031843D4E903363343184363691843E9
:100AC000A3691843E3691843236A18430843616A1A
:100AD000042903D1D4E90B1319430843106020689B
:100AE0004069666A20F0070130460E43012704285A
:100AF0000CD1A06A0643E06A40B12046FFF742FEEF
:100B000020B14020606584F83570BAE720684661FE
:100B10002046FFF723FE94F85C203F21914081603E
:100B2000656584F835700020ACE700003F8010F068
:100B30002DE9F0410446866D90F834000025012827
:100B40000DD0012084F8340094F835700020012F76
:100B500007D084F8340002252846BDE8F081022041
:100B6000FBE7022784F8357060652046FFF734FE06
:100B700094F85C103F208840B0602068016841F024
:100B800016010160206C20B12068016841F0080165
:100B900001602068016841F001010160DCE70000AC
:100BA00070B5044600F006F90546601C02D0044802
:100BB0000078044400F0FEF8401BA042FAD370BD58
:100BC000140000202DE9F84FDFF8BCA10022012518
:100BD00003264FF00F090AF1040BAAF1040E00BF1F
:100BE0000B6805FA02F42340A34270D10F7907F095
:100BF0000307012F01D0022F16D187684FEA420860
:100C000006FA08FC27EA0C07D1F80CC00CFA08FC1D
:100C10004CEA070CC0F808C04768A7430C79C4F336
:100C2000001494403C4344600C79E443A4070AD088
:100C3000C4684FEA420C06FA0CF7BC438F6807FA07
:100C40000CF72743C7600C7904F00304022C12D17F
:100C5000D40800EB840CDCF820405707FF0E09FA9B
:100C600007F824EA0804D1F8108008FA07F848EADF
:100C70000408CCF8208004684FEA420C06FA0CF70E
:100C8000BC430F7907F0030707FA0CF72743076007
:100C90004C6814F4403F70D03C4C276847F48047C0
:100CA0002760246822F0030704F480440094384C41
:100CB00007EB040CDCF8084897074FEA177809FAA5
:100CC00008F7BC43334FB84202D1002724E054E078
:100CD000314FB84201D101271EE0304FB84201D157
:100CE000022719E02E4FB84201D1032714E02D4FFF
:100CF000B84201D104270FE02B4FB84201D105279C
:100D00000AE02A4FB84201D1062705E0284FB84231
:100D100001D1072700E0082707FA08F72743CCF896
:100D20000878DAF800405746D1F804C09C435FEADF
:100D3000CC2C00D51C433C60DBF800405F46D1F86A
:100D400004C09C435FEA8C2C00D51C433C60DEF859
:100D500000407746D1F804C09C435FEA8C3C00D544
:100D60001C433C60084F083F3C68D1F804C09C43DA
:100D70005FEACC3C00D51C433C60521C102AFFF4B7
:100D80002FAFBDE8F88F0000083C01404438024016
:100D90000030014000000240000402400008024010
:100DA000000C0240001002400014024000180240F3
:100DB000001C0240014880687047000014000020B9
:100DC0000248816802781144816070471400002055
:100DD0000B4810B5016841F400710160016841F4ED
:100DE00080610160016841F480710160032000F0BE
:100DF0006FF80F2000F006F800F024F8002010BD76
:100E0000003C024070B50D4D04464FF47A712878CD
:100E1000B1FBF0F00A490968B1FBF0F000F00AFB01
:100E200048B9102C07D200222146501E00F030F89D
:100E300000206C6070BD012070BD00001400002017
:100E4000200000200A4808B5016841F48041016093
:100E5000006800F4804000900548001F016841F0E0
:100E600080510160006800F08050009008BD0000D3
:100E700044380240002809DB00F01F0201219140A4
:100E80004009800000F1E020C0F800117047000028
:100E9000F0B40E4B1B680C46C3F30223C3F10705E5
:100EA000042D00D90425191D072901D2002300E0D3
:100EB000DB1E012606FA05F1491E214099409E409D
:100EC000761E16403143F0BC01F03BB90CED00E05A
:100ED000064900F0070208684FF6FF03184040EA91
:100EE0000220034A10430860704700000CED00E048
:100EF0000000FA052DE9F0470E46050065D0DFF841
:100F00001481D8F80000F7B200F00700B04207D211
:100F100088F80070D8F8000000F00700B04254D103
:100F200028683D4C810712D5400703D5206840F45E
:100F3000E05020602878000703D5206840F4604026
:100F400020602068A96820F0F0000843206028781D
:100F5000C0072DD0304968680839012812D002280E
:100F600013D0032811D00968890700292DDA2168D8
:100F700021F0030101432160FFF71CFF814641F28C
:100F8000883A0EE009688903EFE709688901ECE710
:100F9000FFF710FFA0EB0901514502D90320BDE87E
:100FA000F0872068696800F00C00B0EB810FEFD18A
:100FB000D8F80010404601F00701B14207D9077088
:100FC000006800F00700B04201D00120E7E7287870
:100FD000400705D52068E96820F4E0500843206008
:100FE0002878000706D52068296920F4604040EA87
:100FF000C100206000F038F82168084AC1F30311ED
:10100000515CC8400649086006480068FFF7FAFED0
:101010000020C4E7003C024008380240803200084B
:1010200020000020180000200448054900680968D5
:10103000044AC1F38221515CC8407047200000205F
:1010400008380240903200080448054900680968E1
:10105000044AC1F34231515CC8407047200000206F
:101060000838024090320008154810B5006810F0AA
:101070000C02144813D04110042A0FD0082A0ED1B4
:101080000F4C241F2268236802F03F025B0207D541
:101090002068C0F38810A0FB010106E0084610BDDF
:1010A0002168C1F38811A1FB00010023FFF78AF832
:1010B0002168C1F30141491C4900B0FBF1F010BDAA
:1010C000083802400024F4002DE9F84F04006ED0E7
:1010D0002078DFF84C93C007A9F104054AD009F144
:1010E00004000168C1F38101012908D00068C0F340
:1010F000810002280AD1D9F80000400206D52868EC
:10110000800337D560680028E1D033E06068B0F52F
:10111000803F10D0B0F5A02F286810D020F4803088
:101120002860286820F4802028606068A8B1FFF754
:1011300041FE06460DE0286840F48030F4E740F4B4
:1011400080202860F7E700BFFFF734FE801B64288B
:1011500073D828688003F7D50CE0FFF72BFE06460E
:1011600005E000BFFFF726FE801B6428F0D8286842
:101170008003F7D42078DFF8AC8280074FF0000AB4
:101180003ED5A748001D016811F00C0F08D000687B
:10119000C0F3810002280BD1D9F80000400207D427
:1011A0002868800716D5E068012800D112E033E1F5
:1011B000E068B8B10120C8F80000FFF7FBFD064663
:1011C00005E000BFFFF7F6FD801B0228C0D82868A5
:1011D0008007F7D52868216920F0F80040EAC100AF
:1011E00028600DE0C8F800A0FFF7E4FD064604E023
:1011F000FFF7E0FD801B02281FD828688007F7D47E
:101200002078000722D5864F87486169703771B111
:1012100001210160FFF7CEFD064604E0FFF7CAFD9D
:10122000801B022809D838688007F7D50EE0C0F87F
:1012300000A0FFF7BFFD064605E082E0FFF7BAFD1C
:10124000801B02287DD838688007F7D420784007B3
:1012500068D5DFF8CCB100270BF13C0BDBF80000C0
:10126000C0000BD4DBF8001041F08051CBF8001027
:10127000DBF80000012700F0805000906B4E3068D2
:10128000C00510D4306840F480703060FFF792FDE4
:10129000009005E0FFF78EFD0099401A022850D813
:1012A0003068C005F6D55E4EA0686C3601280FD0B8
:1012B0000528306810D020F001003060306820F040
:1012C00004003060A068B8B1FFF774FD00900FE033
:1012D000306840F00100F4E740F004003060F7E7C8
:1012E000FFF768FD0099411A41F28830814266D8C3
:1012F00030688007F4D50EE0FFF75CFD009007E052
:10130000FFF758FD0099411A41F28830814256D8C2
:1013100030688007F4D42FB1DBF8001021F0805141
:10132000CBF80010A069C8B33D49091D0968C1F395
:10133000810102294AD00228504607D0C8F860002F
:1013400000E03CE0FFF736FD04463BE04746C8F8C6
:101350006000FFF72FFD064605E000BFFFF72AFDFE
:10136000801B02282BD828688001F7D4D4E9070114
:101370000843A16A2E4A490802EB0141626A41EA28
:101380008211084394F82C1040EA0161C9F800105A
:1013900001203866FFF70EFD044606E03EE000BF80
:1013A000FFF708FD001B022809D828688001F7D53F
:1013B00034E000BFFFF7FEFC001B022802D9032027
:1013C000BDE8F88F28688001F4D427E00128F7D021
:1013D000D9F80000E26900F4800191421CD1226A30
:1013E00000F03F01914217D147F6C071626A014097
:1013F000B1EB821F10D1A26A4FF0FF3300F44031ED
:1014000003EB5202B1EB024F06D194F82C1000F01E
:101410007060B0EB016F01D00120D1E70020CFE771
:101420000438024000004742800E474200700040EE
:101430000000FFFF10B5401EB0F1807F01D30120F6
:1014400010BD4FF0E02460610F21601700F079FEBD
:101450000020A06107202061002010BD38B504469F
:1014600090F84200202801D0022038BD51B14AB185
:101470000120206300206063204600F0ADFD216B59
:10148000012901D0012038BD21680A68496800910E
:1014900021680C3151E8002F42F0100241E800238E
:1014A000002BF5D138BD0000094A10B590420DD18E
:1014B00090F84200202809D1084601F081FEBDE8DD
:1014C0001040C82203490248FFF7C8BF10BD000002
:1014D000A00000205E01002070470000F8B5016800
:1014E00004460868CA684B6910F00F0F4FF00005FA
:1014F00059D003F0010602F49077374365D0C10755
:1015000005D0D10503D5616C41F00101616441074B
:1015100005D5D90703D0616C41F0020161648107F0
:1015200005D5D90703D0616C41F00401616401075E
:1015300007D502F02001314303D0616C41F008016E
:101540006164616C00293AD0800604D5900602D50A
:10155000204600F05AFC20684069616CC0F380109E
:10156000090700D460B3204600F01AFC20684069E7
:10157000400621D52068143050E8001F21F04001BA
:1015800040E80012002AF5D1E06BA8B1724901656C
:10159000E06BFFF781F9002811D0E06B016D01B01D
:1015A000BDE8F040084783060FD593060DD52046C9
:1015B000BDE8F84000F029BC2046FFF78DFFF8BDDC
:1015C0002046FFF789FF6564F8BD266B2023012EB6
:1015D0007ED1C6067CD5D6067AD5086848680090C4
:1015E00048694FF0020640064DD5E26B106840682E
:1015F0004FF480770004000C3AD0A18D814237D996
:10160000E085D069B8422DD020680C3050E8001F2A
:1016100021F4807140E80012002AF5D120681430CE
:1016200050E8001F21F0010140E80012002AF5D126
:101630002068143050E8001F21F0400140E80012FB
:10164000002AF5D184F84230256320680C3050E838
:10165000001F21F0100140E80012002AF5D1E06BD4
:10166000FFF7D1F86663A08DE18D401A81B206E0E4
:10167000A18D8142A8D1D069B842A5D16663204628
:10168000FFF712FFF8BDA08DE18D401A81B2E08D09
:101690000028F7D00029F5D020680C3050E8002F42
:1016A00022F4907240E80027002FF5D12068143012
:1016B00050E8002F22F0010240E80027002FF5D16A
:1016C00084F84230256320680C3050E8002F00E099
:1016D00006E022F0100240E80023002BF3D1CDE712
:1016E00005062BD5150629D594F841002128C9D126
:1016F000A068B0F5805F01D12069B0B1206A411CBB
:101700002162216800784860E08C401E0004000CD3
:10171000E084B7D12068C16821F08001C1602068F1
:10172000C16841F04001C160F8BD206A0088C0F383
:1017300008004860206A801C2062E5E74006F3D577
:101740005006F1D5CA68204622F04002CA6084F8EB
:10175000413000F0FFF8F8BDA51C000870B504008A
:1017600004D094F84100002510B106E0012070BDBE
:1017700084F84050204600F023F8242084F84100EB
:101780002068C16821F40051C160204600F09EFB32
:101790002068016921F4904101612068416921F0CC
:1017A0002A0141612068C16841F40051C16065644B
:1017B000202084F8410084F842006563002070BD59
:1017C000F0B587B0064614216846FEF733FD32496E
:1017D000304F346800253048143902220323BC42BC
:1017E0001BD1046844F010040460006800F010008D
:1017F0000590086840F0010008600868694600F03C
:101800000100059058028DE825000720CDE903303E
:101810002248FFF7D7F907B0F0BD214FBC42FAD1FB
:10182000046844F020040460006800F02000059083
:10183000086840F0040008600868694600F0040089
:101840000590C0208DE825000820CDE9033015481B
:10185000FFF7B8F9154C144820608005C4E901056C
:101860003815C4E903506561A561E561256220462C
:101870006562FFF7F3F808B1FEF7C3FFF4630022D7
:1018800011464720A663FFF703FB4720FFF7F2FA54
:10189000C1E700000010014044380240000002404F
:1018A000001401400008024028640240E8000020C3
:1018B000704770472DE9F843044690F84100984678
:1018C00016460D46202802D00220BDE8F88385B1D7
:1018D0007EB100206064212084F84100FFF76AFA9D
:1018E000A6848146E684A0682027B0F5805F02D0F8
:1018F00003E00120E9E7206910B12E4600250EE043
:1019000000260CE08021204600F0B6FBA8B9C6B145
:1019100016F8010B21684860E08C401EE084E08CE2
:101920004B464FF00002CDF800800028EAD14FF07E
:101930004001204600F0A0FB40B184F84170032034
:10194000C3E735F8020BC0F30800E3E784F8417001
:101950000020BAE77047FEE72DE9F0412A4B2B4CF7
:1019600000202DED028B0546D3E900219B682678E7
:101970009FED278ACEB3012E33D1A2F5C0660B3E70
:101980002FD1C1F307267601C1F3074706EBD7062F
:1019900000EE106A9FED1F1AA278F8EE400A9FED44
:1019A0001E0A521CD2B210EE810AA270D4ED020AB5
:1019B000F4EEC00AF1EE10FA03DD84ED020AC4E988
:1019C000031361788A420CD1104914480C3100F09D
:1019D00027F8A570657084ED028A2570E560012006
:1019E0002561BDEC028BBDE8F081FFE7A2F5C06385
:1019F0000A3BF6D111F0FF01617084ED028AF0D04C
:101A000001212170A570ECE74801002000000020B2
:101A100000007A44CDCCCC3D0000FA4334000020D5
:101A200010B504462DED028B0878207048788A782E
:101A3000400100EBD20000EE100A9FED331AF8EEE1
:101A4000400A9FED320A10EE810A84ED010A8A787D
:101A5000C87802F0070200EB022000EE900A20EEA8
:101A6000000AF8EE601ADFED2A0A51EE810ADFED76
:101A7000291AC4ED020A08794A79800000EB921015
:101A800001EE100A00EEA00AB8EE412AB5EE001AE7
:101A900052EE011AC4ED031A48798A798006C00D06
:101AA00000EB521001EE900AB8EE612ADFED1A1A2F
:101AB00052EE011AC4ED041A887900F0070020756F
:101AC000C879607500F06EFD84ED060A94ED021A87
:101AD000D4ED010A81EE200A00F044FB84ED080AEF
:101AE00000F0F0FBD4ED030A20EE208A94ED080A02
:101AF00000F090FCD4ED040A00EE808A84ED078AA1
:101B0000BDEC028B10BD0000CDCCCC3D0000FA43F3
:101B10009A99CC420000004300008042094808B571
:101B2000016841F4800101600068002200F4800037
:101B3000009011463920FFF7ABF9BDE80840392085
:101B4000FFF798B9303802400D4808B5016841F0F8
:101B500080010160016801F080010091016841F09D
:101B600004010160016801F004010091016841F085
:101B700001010160006800F00100009008BD000054
:101B8000303802400C4810B50A4901604FF4E13189
:101B90004160002181600C22C160C0E904128161B2
:101BA000C161FFF7DBFD002803D0BDE81040FEF760
:101BB00028BE10BD00100140580000200C4810B590
:101BC0000A4901604FF4E1314160002181600C223B
:101BD000C160C0E904128161C161FFF7BFFD002847
:101BE00003D0BDE81040FEF70CBE10BD001401404C
:101BF000A0000020FEE7FEE770477047FFF7E0B85F
:101C000030B593B030216846FEF714FB14210CA8C0
:101C1000FEF710FB1D480025016841F0805101606E
:101C2000006800F0805011901948016841F480412B
:101C300001600068022400F48040119001200090AF
:101C4000000401908001CDE9064008AA0420A821E3
:101C500082E813000B906846FFF736FA08B172B6B7
:101C6000FEE70CA90F2081E831004FF4A0500F903F
:101C70004FF48050109005210CA8FFF73BF9002885
:101C800001D072B6FEE713B030BD0000403802400C
:101C9000007000400248016841F470010160704723
:101CA00088ED00E010B5806B0021C185FFF714FCC2
:101CB00010BD70B5846B2068406994F84110C0F382
:101CC000C0100025212904D118B1E584204600F078
:101CD0008EF82068406994F84210C0F380102229E1
:101CE00004D118B1E585204600F05AF8606C40F048
:101CF000100060642046FFF7EFFB70BD10B5014691
:101D0000806B096809684FF00002C9052ED4C285AE
:101D100001680C3151E8003F23F4807341E800343E
:101D2000002CF5D10168143151E8003F23F0010384
:101D300041E80034002CF5D10168143151E8003F2E
:101D400023F0400341E80034002CF5D1202180F835
:101D50004210016B012909D101680C3151E8003FA3
:101D600023F0100341E80034002CF5D14263016BED
:101D7000012902D0FFF79CFD10BD818DFFF794FB78
:101D800010BD10B5806B01214163016B012902D0A8
:101D9000FFF78FFD10BD818D4908FFF785FB10BD52
:101DA00001680C3151E8002F22F4907241E80023C1
:101DB000002BF5D10168143151E8002F22F0010207
:101DC00041E80023002BF5D1016B012909D10168FD
:101DD0000C3151E8002F22F0100241E80023002BC3
:101DE000F5D1202180F8421000210163704701687D
:101DF0000C3151E8002F22F0C00241E80023002BF3
:101E0000F5D1202180F84110704708B590F84210B4
:101E1000222901D0022008BD82684FF480539A42E3
:101E200001D1016921B1816A9A421BD04AB10AE00D
:101E30000268816A5268C2F308020A80816A891CBA
:101E400008E0026972B10268526802F07F020A700B
:101E5000816A491C8162C18D491E0904090CC18532
:101E600003D01BE002685268F1E70168CA6822F0FB
:101E70002002CA600168CA6822F48072CA600168E0
:101E80004A6922F001024A61202180F842100021B3
:101E90004163026B012A03D0FFF70AFD002008BD51
:101EA000016301680C3151E8002F22F0100241E873
:101EB0000023002BF5D101680A68D20602D50A6812
:101EC00049680091818DFFF7EFFAE7E770B50446A6
:101ED00000680169E26821F4405111430161216900
:101EE000A068E26908436169114308432168CA6830
:101EF00049F20C639A430243CA6020684169A269AF
:101F000021F440711143416131492068884202D077
:101F10003049884202D1FFF797F801E0FFF784F8D3
:101F2000E2690023192164253226B2F5004F626868
:101F300028D0A0FB0101930F9200FEF743F9014660
:101F4000B0FBF5F06FF01802504301EB800006EB98
:101F50000010B0FBF5F000F0F002B1FBF5F002EB81
:101F60000012B1FBF5F06FF01803584301EB80004D
:101F700006EB0010B0FBF5F000F00F0021681044F4
:101F8000886070BDA0FB010192185B41FEF71AF951
:101F90000146B0FBF5F00201B1FBF5F06FF018035C
:101FA000584301EB800006EBC000B0FBF5F000F0F9
:101FB000F80002EB4002B1FBF5F0584301EB800062
:101FC00006EBC000B0FBF5F000F00700D6E700001C
:101FD000001001400014014038B58162044682853A
:101FE000002013466064222284F84220E56B1F4AD9
:101FF000EA63E56B1E4A2A64E56B1E4AEA64E26BFB
:1020000010650A462168E06B091DFEF791FD30B1AD
:1020100010206064202084F84200012038BD206830
:10202000016840680090206948B120680C3050E891
:10203000001F41F4807140E80012002AF5D12068A9
:10204000143050E8001F41F0010140E80012002A5E
:10205000F5D12068143050E8001F41F0400140E8FD
:102060000012002AF5D1002038BD0000FD1C000838
:10207000831D0008B31C00082DE9F8439846174655
:102080000D460446089E24E0701C22D0FEF792FE06
:10209000A0EB0800B0421AD8CEB12068C168490749
:1020A00017D5802D15D0402D13D00168C9430907DD
:1020B0000FD401680025406800902046FFF770FEAD
:1020C0000820606484F840500120BDE8F8830320B4
:1020D000FBE72068006835EA000004D00020B84221
:1020E000D2D00020F1E70120F9E700000148FFF716
:1020F000F5B90000A0000020FEE700000FB4054B7A
:1021000010B503A9044A029800F0FEFB10BC5DF86C
:1021100014FB0000113000082C00002041000802D0
:1021200018BF04200A0E18BF40F001004FF07F4294
:1021300032EA010108BF40F00200012808BF052073
:1021400070470907090E002804DB00F1E02080F841
:102150000014704700F00F0000F1E02080F8141D1B
:102160007047000010B54FF00E412DED028BB0EE20
:10217000408A18EE100A01EB4001B1F1145F5CD205
:102180004FF0FE41B1EB400F24BF9FED400AF0EE4F
:10219000400A12D210F0004F19BFDFED3D0A9FED4B
:1021A0003D0ADFED3D0A9FED3D0AFFEE001A81EE8C
:1021B000881AB0EE418A18EE100A4FF0FC41B1EBDC
:1021C000400F1BD210F0004FDFED351A9FED352A7E
:1021D0001DBFBEEE001A70EEE10A30EE420AB6EE06
:1021E000001A04BF70EEA10A30EE020A38EE412A4E
:1021F000F7EE001A48EE011A82EE218ADFED2A1A64
:102200009FED2A2A28EE081A01EE212ADFED281A6E
:1022100041EE021A9FED272A01EE212ADFED261A50
:1022200041EE021A28EE011A01EE210A30EE080AE8
:10223000BDEC028B30EE200A10BD4FF0E441B1EB53
:10224000400F0CD918EE100AFFF768FF042808BFEA
:1022500000F0D0F9B0EE480ABDEC028B10BD4FF093
:102260007F41B1EB400F07D2B0EE480ABDEC028BC4
:10227000BDE8104000F0B3B910F0004F14BF9FED5F
:102280000F0A9FED0F0ABDEC028B10BD000000008D
:102290000000C9BF22AAFDB90000C93F22AAFD392A
:1022A0000060ED3EC30ACE372DAD65BD8FB8D53D7C
:1022B0000FB511BE61C84C3EA8AAAABEDB0FC9BFAC
:1022C000DB0FC93F10EE101A08B5444A6846B2EB5E
:1022D000410F28D94FF0E640B0EB410F94BF0020EA
:1022E0004FF0FF3000900098002861DB60EE000A9C
:1022F00010F0010F45D010F0020FDFED391A9FEDFD
:10230000391A00EEE11ADFED381A40EE811A21EE9B
:10231000A01AF0EE400A40EE010A08BFF1EE600A92
:10232000B0EE600A08BD314B21F0004293423CD927
:1023300011F0004FDFED2E0A20EE201ADFED2D0AFE
:1023400019BF31EE601A71EE200A31EE201A71EEDB
:10235000600ABDEEE01A11EE100A9FED271A00F098
:10236000030000EEC10A9FED251A009000EEC10A9D
:102370009FED231A00EEC10A9FED221A00EEC10A5A
:10238000B1E79FED211A9FED210A10F0020F00EE38
:10239000810A9FED1F1A00EE801AB7EE000A00EEC8
:1023A000810A18BFB1EE400A08BD00F02BF99AE788
:1023B00010EE100A4000B0F17F4F3CBFB7EE000AAC
:1023C00008BD07D14FF0010000F0D6F9BDE8084084
:1023D00000F008B9BDE8084000F001B9B61F927ED0
:1023E000336D4C39DA82083CA0AA2ABE490E494610
:1023F00083F9223F0000004B0000C93F00A0FD39D7
:102400000020A2331A61342CB93AB2BACA9F2A3DCD
:10241000DDFFFFBE00B510EE101A2DED028B81B06E
:10242000524A6846B2EB410F2ED94FF0E640B0EB6E
:10243000410F94BF00204FF0FF3000900098B0EEA5
:10244000408A00286ADB10F0010F4BD068EE080AC2
:102450009FED471A9FED470A00EE810A9FED461A4D
:1024600010F0020F00EE801AB7EE000A00EE810AAB
:1024700002BF01B0BDEC028B00BD00BF01B0B1EEE8
:10248000400ABDEC028B00BD3C4B21F00042934260
:1024900041D911F0004FDFED3A0A20EE201ADFEDAE
:1024A000390A19BF31EE601A71EE200A31EE201A96
:1024B00071EE600ABDEEE01A11EE100A9FED321ABD
:1024C00000F0030000EEC10A9FED301A009000EE0C
:1024D000C10A9FED2F1A00EEC10A9FED2E1A00EEE1
:1024E000C10AABE728EE080A9FED2B1ADFED2B0A95
:1024F00010F0020F40EE410A9FED291A00EE201A5B
:1025000061EE000AB0EE480A08EE200AB6D101B02A
:10251000BDEC028B00BD00F075F88FE718EE100AD5
:102520004000B0F17F4F0DD218EE100AFFF7F6FD14
:10253000042808BF00F05EF8B0EE480A01B0BDEC18
:10254000028B00BD09D1012000F016F901B0BDECED
:10255000028B5DF804EB00F045B801B0B0EE480A1C
:10256000BDEC028B5DF804EB00F039B8B61F927E2B
:10257000B93AB2BACA9F2A3DDDFFFFBE490E4946AD
:1025800083F9223F0000004B0000C93F00A0FD3945
:102590000020A2331A61342C336D4C39DA82083CA6
:1025A000A0AA2ABE10B52DED028BB1EEC08A18EE9E
:1025B000100A20F00040C0F1FF40C00F0AD010EE1A
:1025C000100A20F00040C0F1FF40C00F04BF0120FE
:1025D00000F0D2F8B0EE480ABDEC028B10BD30EE30
:1025E000000A7047DFED020A80EEA00A7047000083
:1025F000000000009FED020A20EE000A7047000074
:10260000000000102DE9F0014FF07F42B2EB410FC6
:102610009FBF4FF0FF310160BDE8F00170474FF000
:10262000004242EA0123C1F3C752783A551112F031
:102630001F0C434CCCF120067C44C1F3C752A2F1DD
:1026400078024FEA621204EB820254F8254008BF78
:10265000D2E9015612D0556804FA0CF425FA06F7AF
:102660003C43976805FA0CF527FA06F8D26807FA92
:102670000CFCF24045EA08054CEA0206A4FB034CB8
:10268000A5FB0352A6FB03631D449D4234BF0126F4
:1026900000261319334416B1934202D903E0934242
:1026A00001D2012200E00022624402F1200C9206D5
:1026B000DC0C42EA443200EE102A5B03DFED210A13
:1026C000F8EEC01A00EE103A4FEA9C1C11F0004FD1
:1026D000B8EE400AC0F800C020EE201A00EE105AF2
:1026E000DFED190AB8EE400A20EE200A71EE810AE9
:1026F00070EE800A10EE902A02F500626FF30B0272
:1027000000EE902A70EEE11A31EEC11ADFED101AD8
:1027100030EE411A9FED0D0A20EE800A01EE210AEB
:102720009FED0C1A00EE810A04BFBDE8F00170476E
:10273000CCF180510160BDE8F001B1EE400A704774
:102740005C0C0000000000360000802C22AAFD294D
:10275000DB0FC92F0000C92F02E008C8121F08C1F3
:10276000002AFAD170477047002001E001C1121F12
:10277000002AFBD170470000014908607047000043
:10278000300000202DE9FF5F82B00021DDE9043038
:10279000020DDDF840B0034318D044F61050A2F209
:1027A000FF3242431514119801281FD0A5EB0B00EE
:1027B000401C5FEA000A4FF000064E4FDFF83891E8
:1027C000B046504615D5CAF1000413E01198012413
:1027D0004AA3012801D16FEA0B010298119AC0E9BE
:1027E0000031C0E9024206B0BDE8F09FCBF1000025
:1027F000DFE704460021404A491842EB0450CDE986
:10280000001012E0E00707D032463B4640464946FA
:10281000FDF70AFE8046894632463B461046194679
:10282000FDF702FE06460F466410002CEAD1DDE9F2
:102830000401DDE90023BAF1000F06DAFDF7F4FD2B
:1028400042464B46FDF7F0FD05E0FDF75FFE4246D0
:102850004B46FDF75BFE04460E460022284BFDF773
:10286000DDFE03D84FF0FF30014607E00022254B84
:1028700020463146FDF731FDFDF7B7FE102409E093
:10288000002C0ADB0A220023FDF79CFC039B30325C
:102890001A55641E50EA0102F2D1641C039AC4F175
:1028A00011031444119A012A03D0012208430DD1C7
:1028B0000AE0084304D000204FF0110B119072E79A
:1028C000A3EB0B056D1E0DE05B4504DD4FF0000230
:1028D00005F1010504E003DA4FF00002A5F101055E
:1028E000002AECD002981199C0E90231C0E90045F4
:1028F00079E70000000014400000F03F30000000C5
:102900000000F0430000E03F2DE9FF4F95B09A46EC
:10291000884606460025EEE1252877D10024274683
:10292000F94A0121039400E0044316F8013F203BDB
:1029300001FA03F01042F7D130782A2811D06FF055
:102940002F033078A0F13002092A16D8039A44F0F8
:10295000020402EB820203EB42021044761C039055
:10296000EFE758F8042B0392002A03DA504244F4AC
:102970000054039044F00204761C30782E2816D1BF
:1029800016F8010F44F004042A280DD06FF02F022E
:102990003078A0F13003092B09D807EB870302EB4D
:1029A0004303C718761CF3E758F8047B761C30788D
:1029B0006C280FD006DC4C2817D068280DD06A2868
:1029C00014D104E0742810D07A280FD10DE044F41B
:1029D00000140AE044F4801401E044F440147278D6
:1029E000824202D104F58014761C761C3078662869
:1029F0000BD013DC582877D009DC002875D0452887
:102A0000F6D04628F4D047281AD193E118E063287D
:102A100035D0642879D0652812D18BE1702873D025
:102A200008DC6728F1D069286FD06E280DD06F2898
:102A300006D1ACE073282CD0752874D0782853D0F8
:102A40005246179990476D1C54E1C4F30250022876
:102A500009D003280DD0D8F8001004280DD00D603F
:102A600008F1040846E1D8F80010EA17C1E900525D
:102A7000F6E7D8F800100D80F2E70D70F0E718F8CF
:102A8000041B8DF8001000208DF80100EB4601209A
:102A900003E058F804BB4FF0FF3061074FF000012E
:102AA00002D40DE009F101018946B9420FDA8145EE
:102AB000F8DB1BF809100029F4D108E009F1010145
:102AC00089468142FADB1BF809100029F6D10398E8
:102AD0005346A0EB090721463846179A00F080FAC2
:102AE000284400EB090507E044E008E10DE01BF88D
:102AF000010B524617999047B9F10109F7D2534695
:102B000021463846179AF2E039E00A21C4F302520E
:102B10004FF0000B0091022A06D058F8040BC117A1
:102B2000032A09D00AE023E008F1070020F0070299
:102B3000F2E80201904605E000B2C117042A01D173
:102B400040B2C117002906DA0A460021404261EB73
:102B500002012D2202E0220504D52B228DF804204B
:102B6000012203E0E20701D02022F7E7914657E077
:102B70000A2100E010214FF0000B00910BE0102122
:102B80004FF0000B44F004040827009103E00820F4
:102B90004FF0000B0090C4F30252022A05D058F8FF
:102BA000040B0021032A08D008E008F1070020F0F8
:102BB0000702F2E80201904603E080B2042A00D145
:102BC000C0B24FF0000922072AD53278702A07D008
:102BD000DDF800C08CF0100C5CEA0B0C05D00EE0A8
:102BE00040228DF80420012208E050EA010306D0BB
:102BF00030238DF804308DF8052002229146009B89
:102C000083F0080353EA0B030AD150EA010201D111
:102C1000620705D530228DF804204FF001097F1E90
:102C20003278582A04D039A20C920CAA02920BE0F6
:102C30003BA2F9E75B46009AFDF7C4FA0C9B9B5C4C
:102C4000029A521E0292137050EA0102F2D10298C7
:102C500004A9081A00F1200B600702D524F480347F
:102C600000E001275F4502DDA7EB0B0000E000203C
:102C700000EB0B01009003984944401A0390E003D5
:102C800006D453462146179A039800F0A9F9054443
:102C9000002706E001A85246C05D179990476D1CB9
:102CA0007F1C4F45F6DBE0030CD553462146179AAF
:102CB000039800F095F9054404E030205246179936
:102CC00090476D1C0099481E00900029F5DC08E033
:102CD0000298029952460078491C02911799904730
:102CE0006D1CBBF10001ABF1010BF1DC5BE100F00D
:102CF00065F90544761C307800287FF40DAE19B0D4
:102D00002846BDE8F08F0000092801003031323339
:102D10003435363738396162636465660000000017
:102D20003031323334353637383941424344454601
:102D300000000000600700D4062708F1070020F01B
:102D40000700F0E80223804603F0004C5FEA0C0025
:102D500001D097A009E0200501D596A005E0E00785
:102D600001D095A001E0AFF24C001390307823F031
:102D7000004365280CD006DC452809D046281DD024
:102D800047287FD13BE0662818D067287AD136E003
:102D90000021112F01DB112000E0781CCDE900019A
:102DA00004A90CA8FFF7EEFCDDE90D010C9A4FF029
:102DB000000B07F10109109200914EE04FF0004026
:102DC0000097CDE9011004A90CA8FFF7DBFCDDE9B1
:102DD0000D020C9B0F994FF0000B9146109300923F
:102DE00011B9791C00EB0109B7EB090003D4C0F15C
:102DF000FF3B07F10109A9EB0700019042E0012F19
:102E000000DA01270021112F01DD112000E03846F2
:102E1000CDE9000104A90CA8FFF7B4FCDDE90D0120
:102E20000C9A00914FF0000BB946109221070FD475
:102E3000009A4A4503DA914601E0A9F10109B9F186
:102E4000010F05DD109AA9F10101515C3029F4D080
:102E5000B84202DA10F1040F03DA0121CDE90110C2
:102E600010E0002803DC8344A9EB000102E0411CD0
:102E7000494500DD8946A0EB0B00401C01904FF056
:102E800000400290200705D40198484502DB4FF02E
:102E9000FF30019000208DF84B0002980DF14B0798
:102EA000B0F1004F25D002200C902B200D900298FD
:102EB00000280CDA404202902D200D9007E00A21F4
:102EC0000298FDF7D5F93031029007F8011D0C99F1
:102ED000481E0C900029F2DC02980028EFD1791EE0
:102EE0000D980870307800F0200040F0450007F899
:102EF000020D11A8C01BC01D02901398007800B1EC
:102F0000012000EB0901019801EBE07102980144F6
:102F10000398401A401E0390E00306D4534621460E
:102F2000179A039800F05CF805441398007818B1DC
:102F30005246179990476D1CE00323D5534621460E
:102F4000179A039800F04CF805441BE0BBF1000F02
:102F500007DB0098584504DD1098179910F80B000E
:102F600001E0179930205246904701980BF1010B70
:102F7000401E05F10105019004D12E2052461799FB
:102F800090476D1CB9F10001A9F10109DEDC05E0F3
:102F900017F8010B5246179990476D1C0299481E6D
:102FA00002900029F4DC53462146179A03989EE6C6
:102FB0002D0000002B000000200000002DE9F04152
:102FC000044600251E461746880404D405E0394609
:102FD0002020B0476D1C641EF9D52846BDE8F0815D
:102FE0002DE9F041044600251E469046C80301D550
:102FF000302700E02027880404D505E04146384604
:10300000B0476D1C641EF9D52846BDE8F08100006C
:1030100013B5054C6423012269466068FEF74AFC3B
:103020000028F7D100981CBD00000020FDF7D0FE5D
:10303000FEF7E6FDFEF788FDFEF770FDFEF7A2FD48
:10304000FEF7BCFD322230493048FEF707FA304D1A
:10305000304C287800284AD000202870FEF77CFCED
:103060000028F6D021782CA0FFF748F8A068FDF7DB
:10307000ECF841EC100B2AA053EC102BFFF73EF8B4
:103080006068FDF7E2F841EC100B2AA053EC102B1E
:10309000FFF734F82069FDF7D8F841EC100B2AA0AF
:1030A00053EC102BFFF72AF8E068FDF7CEF841EC5F
:1030B000100B2AA053EC102BFFF720F82CA0FFF7E1
:1030C0001DF8207D30B1012806D0022806D0032843
:1030D00006D008E029A004E02AA002E02CA000E02D
:1030E0002EA0FFF70BF830A0FFF708F8B1E72F4844
:1030F00000780028ADD12EA0FFF700F84FF4FA7049
:10310000FDF74EFDA5E700005E010020A0000020B5
:10311000250000203400002069643A25640D0A006F
:10312000785F64697374616E63653A252E32660D4B
:103130000A000000795F64697374616E63653A2503
:103140002E32660D0A000000785F73706565643A80
:10315000202020252E32660D0A000000795F737052
:103160006565643A202020252E32660D0A00000095
:103170006F626A2073746174653A00002073746F23
:10318000700D0A0020636F6D696E670D0A00000004
:1031900020676F696E670D0A000000002063726F80
:1031A0007373696E670D0A000D0A00002400002089
:1031B000CEB4BCECB2E2B5BDC0D7B4EF0D0A00008E
:1031C0002DE9F0432A49DFF8ACC000220E784D7893
:1031D000CF788B7891460CF10A0440E023B1012BA3
:1031E0000BD0022B38D116E014F80280B8F1AA0FE8
:1031F00032D1AA2F30D101230AE00F7914F80280CE
:103200000CF807807F1CFFB20F710A2F24D1022314
:1032100081F8049020E091F8048008F1010808F09A
:10322000FF0881F80480B8F1020F15D1552F10D195
:10323000A35C552B0DD10F4DBCF800300C3D012681
:103240002B602B46D3F80E505D60D3F812509D6072
:10325000354681F804900023A75C521CD2B282420A
:10326000BCD30E704D708B70CF70BDE8F083000042
:10327000240000205401002000061016000610163D
:103280000000000000000000010203040607080916
:103290000000000001020304000000006E83F9A298
:1032A0002915444ED15727FCC0DD34F5999562DBD2
:1032B0004190433CAB6351FED8320008000000202F
:1032C00034000000582700080C33000834000020A8
:1032D0005C0500006827000800000000580000207E
:1032E00000007A440000000000000000010000001F
:1032F00010000000000000000024F40000000000A6
:0C330000000000000000000000000000C1
:040000050800018965
:00000001FF
